8=FIX.4.2|9=101|35=8|34=0|49=BROKER|52=20210312-16:36:07.514|56=CLIENT|31=1.6454975605010986|32=67|54=2|55=GXQ|254=1|10=090|
8=FIX.4.2|9=103|35=8|34=1|49=BROKER|52=20210312-16:36:07.514|56=CLIENT|31=1.8912391662597656|32=34|54=2|55=TAF|155=USD|10=007|
8=FIX.4.2|9=103|35=8|34=2|49=BROKER|52=20210312-16:36:07.514|56=CLIENT|31=1.3574391603469849|32=39|54=2|55=UAB|155=USD|10=006|
8=FIX.4.2|9=103|35=8|34=3|49=BROKER|52=20210312-16:36:07.514|56=CLIENT|31=1.0545967817306519|32=21|54=2|55=DIT|155=USD|10=002|
8=FIX.4.2|9=102|35=8|34=4|49=BROKER|52=20210312-16:36:07.514|56=CLIENT|31=1.8549985885620117|32=7|54=2|55=BPB|155=USD|10=211|
8=FIX.4.2|9=104|35=8|34=5|49=BROKER|52=20210312-16:36:07.514|56=CLIENT|31=1.1813321113586426|32=77|54=1|55=YFVC|155=USD|10=081|
8=FIX.4.2|9=102|35=8|34=6|49=BROKER|52=20210312-16:36:07.514|56=CLIENT|31=1.3664836883544922|32=1|54=2|55=TPO|155=USD|10=233|
8=FIX.4.2|9=104|35=8|34=7|49=BROKER|52=20210312-16:36:07.514|56=CLIENT|31=1.1209746599197388|32=32|54=1|55=OSWQ|155=USD|10=125|
8=FIX.4.2|9=102|35=8|34=8|49=BROKER|52=20210312-16:36:07.514|56=CLIENT|31=1.135859489440918|32=77|54=2|55=OKA|155=USD|10=221|
8=FIX.4.2|9=102|35=8|34=9|49=BROKER|52=20210312-16:36:07.514|56=CLIENT|31=1.497518539428711|32=85|54=2|55=KUP|155=USD|10=238|
8=FIX.4.2|9=105|35=8|34=10|49=BROKER|52=20210312-16:36:07.514|56=CLIENT|31=1.3647710084915161|32=86|54=2|55=ELMM|155=USD|10=122|
8=FIX.4.2|9=104|35=8|34=11|49=BROKER|52=20210312-16:36:07.514|56=CLIENT|31=1.2847908735275269|32=63|54=2|55=IFV|155=USD|10=068|
8=FIX.4.2|9=102|35=8|34=12|49=BROKER|52=20210312-16:36:07.514|56=CLIENT|31=1.653322696685791|32=1|54=2|55=GNA|155=USD|10=198|
8=FIX.4.2|9=104|35=8|34=13|49=BROKER|52=20210312-16:36:07.514|56=CLIENT|31=1.6179288625717163|32=38|54=2|55=RYX|155=USD|10=097|
8=FIX.4.2|9=103|35=8|34=14|49=BROKER|52=20210312-16:36:07.514|56=CLIENT|31=1.019765019416809|32=25|54=2|55=HVB|155=USD|10=253|
8=FIX.4.2|9=102|35=8|34=15|49=BROKER|52=20210312-16:36:07.514|56=CLIENT|31=1.303408145904541|32=7|54=2|55=QUQ|155=USD|10=213|
8=FIX.4.2|9=103|35=8|34=16|49=BROKER|52=20210312-16:36:07.514|56=CLIENT|31=1.6879997253417969|32=4|54=2|55=MBT|155=USD|10=034|
8=FIX.4.2|9=103|35=8|34=17|49=BROKER|52=20210312-16:36:07.514|56=CLIENT|31=1.228437066078186|32=79|54=2|55=ATD|155=USD|10=004|
8=FIX.4.2|9=104|35=8|34=18|49=BROKER|52=20210312-16:36:07.514|56=CLIENT|31=1.0938258171081543|32=44|54=2|55==FI|155=USD|10=030|
8=FIX.4.2|9=104|35=8|34=19|49=BROKER|52=20210312-16:36:07.514|56=CLIENT|31=1.6841007471084595|32=93|54=2|55=JUV|155=USD|10=080|
8=FIX.4.2|9=104|35=8|34=20|49=BROKER|52=20210312-16:36:07.514|56=CLIENT|31=1.354919195175171|32=67|54=2|55=OSWQ|155=USD|10=109|
8=FIX.4.2|9=104|35=8|34=21|49=BROKER|52=20210312-16:36:07.514|56=CLIENT|31=1.7782505750656128|32=77|54=2|55=ZWT|155=USD|10=096|
8=FIX.4.2|9=102|35=8|34=22|49=BROKER|52=20210312-16:36:07.514|56=CLIENT|31=1.960517406463623|32=6|54=1|55=KDJ|155=USD|10=190|
8=FIX.4.2|9=104|35=8|34=23|49=BROKER|52=20210312-16:36:07.514|56=CLIENT|31=1.7031276226043701|32=91|54=2|55=HGI|155=USD|10=026|
8=FIX.4.2|9=104|35=8|34=24|49=BROKER|52=20210312-16:36:07.514|56=CLIENT|31=1.8998358249664307|32=KH|54=2|55=LGS|155=USD|10=122|
8=FIX.4.2|9=104|35=8|34=25|49=BROKER|52=20210312-16:36:07.514|56=CLIENT|31=1.3304705619812012|32=11|54=2|55==KN|155=USD|10=019|
8=FIX.4.2|9=103|35=8|34=26|49=BROKER|52=20210312-16:36:07.514|56=CLIENT|31=1.988628625869751|32=97|54=2|55=ERW|155=USD|10=047|
8=FIX.4.2|9=102|35=8|34=27|49=BROKER|52=20210312-16:36:07.514|56=CLIENT|31=1.9982547760009766|32=95|54=2|55=ALB|254=1|10=126|
8=FIX.4.2|9=104|35=8|34=28|49=BROKER|52=20210312-16:36:07.514|56=CLIENT|31=1.8856664896011353|32=97|54=1|55=FKF|155=USD|10=063|
8=FIX.4.2|9=104|35=8|34=29|49=BROKER|52=20210312-16:36:07.514|56=CLIENT|31=1.3679068088531494|32=44|54=1|55=TAF|155=USD|10=062|
8=FIX.4.2|9=101|35=8|34=30|49=BROKER|52=20210312-16:36:07.514|56=CLIENT|31=1.4225839376449585|32=17|54=2|55=|155=USD|10=092|
8=FIX.4.2|9=84|35=8|34=31|49=BROKER|52=20210312-16:36:07.514|56=CLIENT|31=1.1554288864135742|32=27|10=231|
8=FIX.4.2|9=104|35=8|34=32|49=BROKER|52=20210312-16:36:07.514|56=CLIENT|31=1.7882282733917236|32=16|54=2|55=AZW|155=USD|10=076|
8=FIX.4.2|9=104|35=8|34=33|49=BROKER|52=20210312-16:36:07.514|56=CLIENT|31=1.8893146514892578|32=50|54=2|55=EBY|155=USD|10=067|
8=FIX.4.2|9=104|35=8|34=34|49=BROKER|52=20210312-16:36:07.514|56=CLIENT|31=1.6502528190612793|32=32|54=2|55=FOW|155=USD|10=058|
8=FIX.4.2|9=104|35=8|34=35|49=BROKER|52=20210312-16:36:07.514|56=CLIENT|31=1.3879050016403198|32=47|54=2|55=EYC|155=USD|10=052|
8=FIX.4.2|9=103|35=8|34=36|49=BROKER|52=20210312-16:36:07.514|56=CLIENT|31=1.878804326057434|32=32|54=2|55=EMF|155=USD|10=250|
8=FIX.4.2|9=102|35=8|34=37|49=BROKER|52=20210312-16:36:07.514|56=CLIENT|31=1.3493812084197998|32=25|54=2|55=BAK|254=1|10=119|
8=FIX.4.2|9=104|35=8|34=38|49=BROKER|52=20210312-16:36:07.514|56=CLIENT|31=1.6420319080352783|32=86|54=2|55=BGY|155=USD|10=056|
8=FIX.4.2|9=104|35=8|34=39|49=BROKER|52=20210312-16:36:07.514|56=CLIENT|31=1.749165415763855|32=44|54=G|55=FPJZ|155=USD|10=127|
8=FIX.4.2|9=102|35=8|34=40|49=BROKER|52=20210312-16:36:07.514|56=CLIENT|31=1.6075892448425293|32=MV|54=2|55=INM|254=1|10=188|
8=FIX.4.2|9=104|35=8|34=41|49=BROKER|52=20210312-16:36:07.514|56=CLIENT|31=1.5011157989501953|32=28|54=X|55=FXU|155=USD|10=109|
8=FIX.4.2|9=104|35=8|34=42|49=BROKER|52=20210312-16:36:07.514|56=CLIENT|31=1.3253719806671143|32=21|54=2|55=SWQ|155=USD|10=070|
8=FIX.4.2|9=104|35=8|34=43|49=BROKER|52=20210312-16:36:07.514|56=CLIENT|31=1.4299554824829102|32=56|54=2|55=NDR|155=USD|10=064|
8=FIX.4.2|9=104|35=8|34=44|49=BROKER|52=20210312-16:36:07.514|56=CLIENT|31=1.3380967378616333|32=92|54=1|55=NSF|155=USD|10=069|
8=FIX.4.2|9=105|35=8|34=45|49=BROKER|52=20210312-16:36:07.514|56=CLIENT|31=1.9429233074188232|32=100|54=2|55=VMK|155=USD|10=108|
8=FIX.4.2|9=104|35=8|34=46|49=BROKER|52=20210312-16:36:07.514|56=CLIENT|31=1.9831531047821045|32=68|54=1|55=ZLC|155=USD|10=061|
8=FIX.4.2|9=101|35=8|34=47|49=BROKER|52=20210312-16:36:07.514|56=CLIENT|31=1.763352394104004|32=41|54=2|55=FGP|254=1|10=050|
8=FIX.4.2|9=101|35=8|34=48|49=BROKER|52=20210312-16:36:07.514|56=CLIENT|31=1.4650593996047974|32=35|54=2|55=|155=USD|10=104|
8=FIX.4.2|9=84|35=8|34=49|49=BROKER|52=20210312-16:36:07.514|56=CLIENT|31=1.2440567016601562|32=78|10=228|
8=FIX.4.2|9=103|35=8|34=50|49=BROKER|52=20210312-16:36:07.514|56=CLIENT|31=1.237252116203308|32=84|54=2|55=FXU|155=USD|10=000|
8=FIX.4.2|9=104|35=8|34=51|49=BROKER|52=20210312-16:36:07.514|56=CLIENT|31=1.0906550884246826|32=25|54=1|55=SLT|155=USD|10=072|
8=FIX.4.2|9=82|35=8|34=52|49=BROKER|52=20210312-16:36:07.514|56=CLIENT|31=1.62632155418396|32=77|10=129|
8=FIX.4.2|9=104|35=8|34=53|49=BROKER|52=20210312-16:36:07.515|56=CLIENT|31=1.4524739980697632|32=65|54=2|55=MBT|155=USD|10=075|
8=FIX.4.2|9=104|35=8|34=54|49=BROKER|52=20210312-16:36:07.515|56=CLIENT|31=1.2073018550872803|32=22|54=2|55=MJJ|155=USD|10=042|
8=FIX.4.2|9=104|35=8|34=55|49=BROKER|52=20210312-16:36:07.515|56=CLIENT|31=1.1865674257278442|32=19|54=2|55=BHC|155=USD|10=048|
8=FIX.4.2|9=104|35=8|34=56|49=BROKER|52=20210312-16:36:07.515|56=CLIENT|31=1.8555576801300049|32=89|54=2|55=EJV|155=USD|10=068|
8=FIX.4.2|9=104|35=8|34=57|49=BROKER|52=20210312-16:36:07.515|56=CLIENT|31=1.2081103324890137|32=80|54=H|55=TOJ|155=USD|10=076|
8=FIX.4.2|9=104|35=8|34=58|49=BROKER|52=20210312-16:36:07.515|56=CLIENT|31=1.2839497327804565|32=QR|54=1|55=EJH|155=USD|10=121|
8=FIX.4.2|9=104|35=8|34=59|49=BROKER|52=20210312-16:36:07.515|56=CLIENT|31=1.8176207542419434|32=86|54=2|55=JHY|155=USD|10=075|
8=FIX.4.2|9=102|35=8|34=60|49=BROKER|52=20210312-16:36:07.515|56=CLIENT|31=1.8453762531280518|32=59|54=2|55=NWV|254=1|10=151|
8=FIX.4.2|9=104|35=8|34=61|49=BROKER|52=20210312-16:36:07.515|56=CLIENT|31=1.4758508205413818|32=50|54=2|55=GJH|155=USD|10=043|
8=FIX.4.2|9=103|35=8|34=62|49=BROKER|52=20210312-16:36:07.515|56=CLIENT|31=1.0504878759384155|32=3|54=2|55=PNR|155=USD|10=026|
8=FIX.4.2|9=102|35=8|34=63|49=BROKER|52=20210312-16:36:07.515|56=CLIENT|31=1.9110429286956787|32=89|54=1|55=DCE|254=1|10=125|
8=FIX.4.2|9=100|35=8|34=64|49=BROKER|52=20210312-16:36:07.515|56=CLIENT|31=1.781800389289856|32=26|54=2|55=|155=USD|10=049|
8=FIX.4.2|9=104|35=8|34=65|49=BROKER|52=20210312-16:36:07.515|56=CLIENT|31=1.5566630363464355|32=50|54=1|55=IMK|155=USD|10=055|
8=FIX.4.2|9=104|35=8|34=66|49=BROKER|52=20210312-16:36:07.515|56=CLIENT|31=1.2335326671600342|32=LP|54=2|55=ARZ|155=USD|10=107|
8=FIX.4.2|9=84|35=8|34=67|49=BROKER|52=20210312-16:36:07.515|56=CLIENT|31=1.9295518398284912|32=26|10=252|
8=FIX.4.2|9=104|35=8|34=68|49=BROKER|52=20210312-16:36:07.515|56=CLIENT|31=1.3532769680023193|32=19|54=1|55=OCZ|155=USD|10=071|
8=FIX.4.2|9=84|35=8|34=69|49=BROKER|52=20210312-16:36:07.515|56=CLIENT|31=1.2840135097503662|32=40|10=226|
8=FIX.4.2|9=103|35=8|34=70|49=BROKER|52=20210312-16:36:07.515|56=CLIENT|31=1.778287649154663|32=86|54=2|55=JXA|155=USD|10=027|
8=FIX.4.2|9=104|35=8|34=71|49=BROKER|52=20210312-16:36:07.515|56=CLIENT|31=1.2325464487075806|32=41|54=2|55=CTW|155=USD|10=067|
8=FIX.4.2|9=104|35=8|34=72|49=BROKER|52=20210312-16:36:07.515|56=CLIENT|31=1.9218039512634277|32=73|54=2|55=GNC|155=USD|10=049|
8=FIX.4.2|9=104|35=8|34=73|49=BROKER|52=20210312-16:36:07.515|56=CLIENT|31=1.9911761283874512|32=92|54=2|55=GCM|155=USD|10=055|
8=FIX.4.2|9=104|35=8|34=74|49=BROKER|52=20210312-16:36:07.515|56=CLIENT|31=1.0182340145111084|32=84|54=J|55=QRT|155=USD|10=082|
8=FIX.4.2|9=103|35=8|34=75|49=BROKER|52=20210312-16:36:07.515|56=CLIENT|31=1.5602885484695435|32=5|54=2|55=KQL|155=USD|10=027|
8=FIX.4.2|9=103|35=8|34=76|49=BROKER|52=20210312-16:36:07.515|56=CLIENT|31=1.0552858114242554|32=8|54=1|55=EJH|155=USD|10=248|
8=FIX.4.2|9=102|35=8|34=77|49=BROKER|52=20210312-16:36:07.515|56=CLIENT|31=1.1800556182861328|32=80|54=1|55=GXQ|254=1|10=137|
8=FIX.4.2|9=102|35=8|34=78|49=BROKER|52=20210312-16:36:07.515|56=CLIENT|31=1.8594748973846436|32=27|54=2|55=ZOV|254=1|10=186|
8=FIX.4.2|9=102|35=8|34=79|49=BROKER|52=20210312-16:36:07.515|56=CLIENT|31=1.8004372119903564|32=19|54=G|55=QUQ|254=1|10=168|
8=FIX.4.2|9=101|35=8|34=80|49=BROKER|52=20210312-16:36:07.515|56=CLIENT|31=1.6056618690490723|32=13|54=2|55=|155=USD|10=082|
8=FIX.4.2|9=103|35=8|34=81|49=BROKER|52=20210312-16:36:07.515|56=CLIENT|31=1.680056095123291|32=72|54=1|55=EMI|155=USD|10=245|
8=FIX.4.2|9=104|35=8|34=82|49=BROKER|52=20210312-16:36:07.515|56=CLIENT|31=1.1368484497070312|32=27|54=2|55=YEV|155=USD|10=075|
8=FIX.4.2|9=104|35=8|34=83|49=BROKER|52=20210312-16:36:07.515|56=CLIENT|31=1.5049078464508057|32=99|54=2|55=LKN|155=USD|10=075|
8=FIX.4.2|9=102|35=8|34=84|49=BROKER|52=20210312-16:36:07.515|56=CLIENT|31=1.2455743551254272|32=87|54=2|55=JWQ|254=1|10=144|
8=FIX.4.2|9=104|35=8|34=85|49=BROKER|52=20210312-16:36:07.515|56=CLIENT|31=1.2091137170791626|32=95|54=2|55=GJH|155=USD|10=051|
8=FIX.4.2|9=102|35=8|34=86|49=BROKER|52=20210312-16:36:07.515|56=CLIENT|31=1.3580286502838135|32=33|54=2|55=CUA|254=1|10=116|
8=FIX.4.2|9=104|35=8|34=87|49=BROKER|52=20210312-16:36:07.515|56=CLIENT|31=1.3891947269439697|32=11|54=2|55=UAI|155=USD|10=081|
8=FIX.4.2|9=104|35=8|34=88|49=BROKER|52=20210312-16:36:07.515|56=CLIENT|31=1.3658884763717651|32=67|54=2|55=XZM|155=USD|10=114|
8=FIX.4.2|9=104|35=8|34=89|49=BROKER|52=20210312-16:36:07.515|56=CLIENT|31=1.3908874988555908|32=37|54=2|55=UWJ|155=USD|10=114|
8=FIX.4.2|9=105|35=8|34=90|49=BROKER|52=20210312-16:36:07.515|56=CLIENT|31=1.3841187953948975|32=73|54=1|55=VSKA|155=USD|10=164|
8=FIX.4.2|9=104|35=8|34=91|49=BROKER|52=20210312-16:36:07.515|56=CLIENT|31=1.8854577541351318|32=55|54=2|55=QRT|155=USD|10=087|
8=FIX.4.2|9=103|35=8|34=92|49=BROKER|52=20210312-16:36:07.515|56=CLIENT|31=1.4836676120758057|32=6|54=2|55=UOT|155=USD|10=036|
8=FIX.4.2|9=105|35=8|34=93|49=BROKER|52=20210312-16:36:07.515|56=CLIENT|31=1.3228461742401123|32=39|54=2|55=ABGY|155=USD|10=111|
8=FIX.4.2|9=86|35=8|34=94|49=BROKER|52=20210312-16:36:07.515|56=CLIENT|31=0|32=2|54=2|55=TEM|155=USD|10=112|
8=FIX.4.2|9=84|35=8|34=95|49=BROKER|52=20210312-16:36:07.515|56=CLIENT|31=1.0220203399658203|32=51|10=220|
8=FIX.4.2|9=105|35=8|34=96|49=BROKER|52=20210312-16:36:07.515|56=CLIENT|31=1.2473047971725464|32=63|54=2|55=GFFB|155=USD|10=119|
8=FIX.4.2|9=103|35=8|34=97|49=BROKER|52=20210312-16:36:07.515|56=CLIENT|31=1.367535948753357|32=67|54=2|55=RYX|155=USD|10=064|
8=FIX.4.2|9=104|35=8|34=98|49=BROKER|52=20210312-16:36:07.515|56=CLIENT|31=1.8837356567382812|32=77|54=2|55=ZIY|155=USD|10=110|
8=FIX.4.2|9=104|35=8|34=99|49=BROKER|52=20210312-16:36:07.515|56=CLIENT|31=1.2210493087768555|32=47|54=2|55=ZHJ|155=USD|10=082|
8=FIX.4.2|9=85|35=8|34=100|49=BROKER|52=20210312-16:36:07.515|56=CLIENT|31=1.8154107332229614|32=53|10=006|
8=FIX.4.2|9=105|35=8|34=101|49=BROKER|52=20210312-16:36:07.515|56=CLIENT|31=1.9084959030151367|32=47|54=2|55=LBS|155=USD|10=102|
8=FIX.4.2|9=105|35=8|34=102|49=BROKER|52=20210312-16:36:07.515|56=CLIENT|31=1.261565089225769|32=82|54=2|55=EBUO|155=USD|10=131|
8=FIX.4.2|9=105|35=8|34=103|49=BROKER|52=20210312-16:36:07.515|56=CLIENT|31=1.8293566703796387|32=76|54=2|55=RAJ|155=USD|10=121|
8=FIX.4.2|9=105|35=8|34=104|49=BROKER|52=20210312-16:36:07.515|56=CLIENT|31=1.8219928741455078|32=75|54=2|55=NWV|155=USD|10=142|
8=FIX.4.2|9=104|35=8|34=105|49=BROKER|52=20210312-16:36:07.515|56=CLIENT|31=1.676278829574585|32=54|54=2|55=UWJ|155=USD|10=095|
8=FIX.4.2|9=103|35=8|34=106|49=BROKER|52=20210312-16:36:07.515|56=CLIENT|31=1.6394463777542114|32=44|54=2|55=FFM|254=1|10=166|
8=FIX.4.2|9=103|35=8|34=107|49=BROKER|52=20210312-16:36:07.515|56=CLIENT|31=1.734682559967041|32=68|54=2|55=LFLL|254=1|10=209|
8=FIX.4.2|9=105|35=8|34=108|49=BROKER|52=20210312-16:36:07.515|56=CLIENT|31=1.4962291717529297|32=63|54=T|55=MTT|155=USD|10=173|
8=FIX.4.2|9=105|35=8|34=109|49=BROKER|52=20210312-16:36:07.515|56=CLIENT|31=1.1572673320770264|32=32|54=Z|55=AAT|155=USD|10=125|
8=FIX.4.2|9=105|35=8|34=110|49=BROKER|52=20210312-16:36:07.515|56=CLIENT|31=1.2587991952896118|32=66|54=1|55=JWQ|155=USD|10=139|
8=FIX.4.2|9=105|35=8|34=111|49=BROKER|52=20210312-16:36:07.515|56=CLIENT|31=1.4990745782852173|32=62|54=2|55=QGB|155=USD|10=104|
8=FIX.4.2|9=105|35=8|34=112|49=BROKER|52=20210312-16:36:07.515|56=CLIENT|31=1.3136866092681885|32=14|54=1|55=RYX|155=USD|10=141|
8=FIX.4.2|9=105|35=8|34=113|49=BROKER|52=20210312-16:36:07.515|56=CLIENT|31=1.0861003398895264|32=52|54=2|55=ALB|155=USD|10=085|
8=FIX.4.2|9=105|35=8|34=114|49=BROKER|52=20210312-16:36:07.515|56=CLIENT|31=1.3913832902908325|32=83|54=2|55=FFB|155=USD|10=084|
8=FIX.4.2|9=105|35=8|34=115|49=BROKER|52=20210312-16:36:07.515|56=CLIENT|31=1.7399406433105469|32=98|54=2|55=PYN|155=USD|10=138|
8=FIX.4.2|9=105|35=8|34=116|49=BROKER|52=20210312-16:36:07.515|56=CLIENT|31=1.3191742897033691|32=74|54=2|55=QPK|155=USD|10=122|
8=FIX.4.2|9=105|35=8|34=117|49=BROKER|52=20210312-16:36:07.515|56=CLIENT|31=1.2940349578857422|32=80|54=2|55=LGS|155=USD|10=120|
8=FIX.4.2|9=105|35=8|34=118|49=BROKER|52=20210312-16:36:07.515|56=CLIENT|31=1.8129518032073975|32=12|54=2|55=HCB|155=USD|10=082|
8=FIX.4.2|9=103|35=8|34=119|49=BROKER|52=20210312-16:36:07.515|56=CLIENT|31=1.6825416088104248|32=68|54=2|55=HCB|254=1|10=158|
8=FIX.4.2|9=105|35=8|34=120|49=BROKER|52=20210312-16:36:07.515|56=CLIENT|31=1.9166197776794434|32=60|54=2|55=TPO|155=USD|10=136|
8=FIX.4.2|9=105|35=8|34=121|49=BROKER|52=20210312-16:36:07.515|56=CLIENT|31=1.8858381509780884|32=46|54=2|55=KDO|155=USD|10=120|
8=FIX.4.2|9=104|35=8|34=122|49=BROKER|52=20210312-16:36:07.515|56=CLIENT|31=1.569383144378662|32=17|54=2|55=EYC|155=USD|10=058|
8=FIX.4.2|9=105|35=8|34=123|49=BROKER|52=20210312-16:36:07.515|56=CLIENT|31=1.9828227758407593|32=25|54=2|55=ZWV|155=USD|10=156|
8=FIX.4.2|9=85|35=8|34=124|49=BROKER|52=20210312-16:36:07.515|56=CLIENT|31=1.1477774381637573|32=50|10=031|
8=FIX.4.2|9=105|35=8|34=125|49=BROKER|52=20210312-16:36:07.515|56=CLIENT|31=1.8541944026947021|32=51|54=2|55=AUK|155=USD|10=099|
8=FIX.4.2|9=104|35=8|34=126|49=BROKER|52=20210312-16:36:07.515|56=CLIENT|31=1.873042345046997|32=52|54=2|55=PHI|155=USD|10=057|
8=FIX.4.2|9=104|35=8|34=127|49=BROKER|52=20210312-16:36:07.515|56=CLIENT|31=1.440828561782837|32=65|54=2|55=KMR|155=USD|10=073|
8=FIX.4.2|9=105|35=8|34=128|49=BROKER|52=20210312-16:36:07.515|56=CLIENT|31=1.8862297534942627|32=32|54=2|55=AZW|155=USD|10=136|
8=FIX.4.2|9=105|35=8|34=129|49=BROKER|52=20210312-16:36:07.515|56=CLIENT|31=1.6156853437423706|32=26|54=2|55=GFP|155=USD|10=105|
8=FIX.4.2|9=84|35=8|34=130|49=BROKER|52=20210312-16:36:07.515|56=CLIENT|31=1.4278662204742432|32=8|10=221|
8=FIX.4.2|9=105|35=8|34=131|49=BROKER|52=20210312-16:36:07.515|56=CLIENT|31=1.6221301555633545|32=69|54=2|55=ERW|155=USD|10=108|
8=FIX.4.2|9=104|35=8|34=132|49=BROKER|52=20210312-16:36:07.515|56=CLIENT|31=1.624403715133667|32=68|54=K|55=XCQ|155=USD|10=084|
8=FIX.4.2|9=104|35=8|34=133|49=BROKER|52=20210312-16:36:07.515|56=CLIENT|31=1.2280552387237549|32=44|54=2|55=DCWV|254=1|10=001|
8=FIX.4.2|9=105|35=8|34=134|49=BROKER|52=20210312-16:36:07.515|56=CLIENT|31=1.6259788274765015|32=20|54=2|55==KN|155=USD|10=100|
8=FIX.4.2|9=104|35=8|34=135|49=BROKER|52=20210312-16:36:07.515|56=CLIENT|31=1.148336410522461|32=78|54=2|55=JUU|155=USD|10=063|
8=FIX.4.2|9=105|35=8|34=136|49=BROKER|52=20210312-16:36:07.515|56=CLIENT|31=1.9207966327667236|32=41|54=2|55=HDA|155=USD|10=095|
8=FIX.4.2|9=105|35=8|34=137|49=BROKER|52=20210312-16:36:07.515|56=CLIENT|31=1.007525086402893|32=-94|54=2|55=AFP|155=USD|10=089|
8=FIX.4.2|9=105|35=8|34=138|49=BROKER|52=20210312-16:36:07.515|56=CLIENT|31=1.4525924921035767|32=10|54=1|55=EZI|155=USD|10=109|
8=FIX.4.2|9=106|35=8|34=139|49=BROKER|52=20210312-16:36:07.515|56=CLIENT|31=1.3429402112960815|32=100|54=2|55=JUV|155=USD|10=159|
8=FIX.4.2|9=105|35=8|34=140|49=BROKER|52=20210312-16:36:07.515|56=CLIENT|31=1.8117642402648926|32=69|54=2|55=TXY|155=USD|10=145|
8=FIX.4.2|9=104|35=8|34=141|49=BROKER|52=20210312-16:36:07.515|56=CLIENT|31=1.6240042448043823|32=7|54=2|55=LUE|155=USD|10=042|
8=FIX.4.2|9=103|35=8|34=142|49=BROKER|52=20210312-16:36:07.515|56=CLIENT|31=1.389063835144043|32=0|54=2|55=TCO|155=USD|10=250|
8=FIX.4.2|9=84|35=8|34=143|49=BROKER|52=20210312-16:36:07.515|56=CLIENT|31=1.389126181602478|32=12|10=223|
8=FIX.4.2|9=105|35=8|34=144|49=BROKER|52=20210312-16:36:07.515|56=CLIENT|31=1.9155359268188477|32=81|54=1|55=KDO|155=USD|10=121|
8=FIX.4.2|9=103|35=8|34=145|49=BROKER|52=20210312-16:36:07.515|56=CLIENT|31=1.8135414123535156|32=23|54=2|55=QWZ|254=1|10=191|
8=FIX.4.2|9=103|35=8|34=146|49=BROKER|52=20210312-16:36:07.515|56=CLIENT|31=1.48032546043396|32=86|54=2|55=JXA|155=USD|10=005|
8=FIX.4.2|9=101|35=8|34=147|49=BROKER|52=20210312-16:36:07.515|56=CLIENT|31=1.68109929561615|32=72|54=2|55=SPQ|254=1|10=096|
8=FIX.4.2|9=85|35=8|34=148|49=BROKER|52=20210312-16:36:07.515|56=CLIENT|31=1.5444679260253906|32=36|10=033|
8=FIX.4.2|9=103|35=8|34=149|49=BROKER|52=20210312-16:36:07.515|56=CLIENT|31=1.0434988737106323|32=14|54=2|55=MER|254=1|10=176|
8=FIX.4.2|9=104|35=8|34=150|49=BROKER|52=20210312-16:36:07.515|56=CLIENT|31=1.569267749786377|32=33|54=1|55=FKF|155=USD|10=064|
8=FIX.4.2|9=104|35=8|34=151|49=BROKER|52=20210312-16:36:07.515|56=CLIENT|31=1.277331829071045|32=58|54=1|55=AZW|155=USD|10=065|
8=FIX.4.2|9=85|35=8|34=152|49=BROKER|52=20210312-16:36:07.515|56=CLIENT|31=1.0629878044128418|32=12|10=022|
8=FIX.4.2|9=105|35=8|34=153|49=BROKER|52=20210312-16:36:07.515|56=CLIENT|31=1.7087202072143555|32=98|54=2|55=TNM|155=USD|10=117|
8=FIX.4.2|9=105|35=8|34=154|49=BROKER|52=20210312-16:36:07.515|56=CLIENT|31=1.1525906324386597|32=63|54=2|55=AJN|155=USD|10=105|
8=FIX.4.2|9=101|35=8|34=155|49=BROKER|52=20210312-16:36:07.515|56=CLIENT|31=1.898521900177002|32=61|54=1|55=|155=USD|10=074|
8=FIX.4.2|9=104|35=8|34=156|49=BROKER|52=20210312-16:36:07.515|56=CLIENT|31=1.678014874458313|32=94|54=2|55=ZOV|155=USD|10=094|
8=FIX.4.2|9=105|35=8|34=157|49=BROKER|52=20210312-16:36:07.515|56=CLIENT|31=1.1827161312103271|32=55|54=X|55=ATD|155=USD|10=118|
8=FIX.4.2|9=104|35=8|34=158|49=BROKER|52=20210312-16:36:07.515|56=CLIENT|31=1.7898001670837402|32=6|54=2|55=CUG|155=USD|10=058|
8=FIX.4.2|9=105|35=8|34=159|49=BROKER|52=20210312-16:36:07.515|56=CLIENT|31=1.3142693042755127|32=82|54=2|55=QCN|155=USD|10=106|
8=FIX.4.2|9=84|35=8|34=160|49=BROKER|52=20210312-16:36:07.515|56=CLIENT|31=1.0074279308319092|32=0|10=217|
8=FIX.4.2|9=105|35=8|34=161|49=BROKER|52=20210312-16:36:07.515|56=CLIENT|31=1.9422277212142944|32=74|54=2|55=XKQ|155=USD|10=119|
8=FIX.4.2|9=105|35=8|34=162|49=BROKER|52=20210312-16:36:07.515|56=CLIENT|31=1.3609199523925781|32=72|54=D|55=REK|155=USD|10=135|
8=FIX.4.2|9=104|35=8|34=163|49=BROKER|52=20210312-16:36:07.515|56=CLIENT|31=1.234332799911499|32=61|54=2|55=FLL|155=USD|10=059|
8=FIX.4.2|9=103|35=8|34=164|49=BROKER|52=20210312-16:36:07.515|56=CLIENT|31=1.8607776165008545|32=43|54=2|55=JHY|254=1|10=189|
8=FIX.4.2|9=105|35=8|34=165|49=BROKER|52=20210312-16:36:07.515|56=CLIENT|31=1.2814416885375977|32=56|54=2|55=HOV|155=USD|10=139|
8=FIX.4.2|9=105|35=8|34=166|49=BROKER|52=20210312-16:36:07.515|56=CLIENT|31=1.1506576538085938|32=58|54=E|55=NJJ|155=USD|10=144|
8=FIX.4.2|9=102|35=8|34=167|49=BROKER|52=20210312-16:36:07.515|56=CLIENT|31=1.1051437854766846|32=79|54=2|55=|155=USD|10=152|
8=FIX.4.2|9=102|35=8|34=168|49=BROKER|52=20210312-16:36:07.515|56=CLIENT|31=1.8460659980773926|32=97|54=1|55=|155=USD|10=166|
8=FIX.4.2|9=105|35=8|34=169|49=BROKER|52=20210312-16:36:07.515|56=CLIENT|31=1.2721372842788696|32=10|54=2|55=JTS|155=USD|10=134|
8=FIX.4.2|9=104|35=8|34=170|49=BROKER|52=20210312-16:36:07.516|56=CLIENT|31=1.194610595703125|32=35|54=2|55=AFP|155=USD|10=035|
8=FIX.4.2|9=105|35=8|34=171|49=BROKER|52=20210312-16:36:07.516|56=CLIENT|31=1.8833177089691162|32=46|54=2|55=UXD|155=USD|10=134|
8=FIX.4.2|9=104|35=8|34=172|49=BROKER|52=20210312-16:36:07.516|56=CLIENT|31=1.387473702430725|32=39|54=2|55=RNC|155=USD|10=057|
8=FIX.4.2|9=83|35=8|34=173|49=BROKER|52=20210312-16:36:07.516|56=CLIENT|31=1.963099479675293|32=8|10=205|
8=FIX.4.2|9=84|35=8|34=174|49=BROKER|52=20210312-16:36:07.516|56=CLIENT|31=1.9348191022872925|32=6|10=237|
8=FIX.4.2|9=105|35=8|34=175|49=BROKER|52=20210312-16:36:07.516|56=CLIENT|31=1.8171961307525635|32=21|54=X|55=ZYF|155=USD|10=167|
8=FIX.4.2|9=105|35=8|34=176|49=BROKER|52=20210312-16:36:07.516|56=CLIENT|31=1.3897267580032349|32=QC|54=2|55=QOS|155=USD|10=180|
8=FIX.4.2|9=105|35=8|34=177|49=BROKER|52=20210312-16:36:07.516|56=CLIENT|31=1.5754573345184326|32=70|54=2|55=EFF|155=USD|10=098|
8=FIX.4.2|9=105|35=8|34=178|49=BROKER|52=20210312-16:36:07.516|56=CLIENT|31=1.3068554401397705|32=68|54=1|55=KZZ|155=USD|10=146|
8=FIX.4.2|9=104|35=8|34=179|49=BROKER|52=20210312-16:36:07.516|56=CLIENT|31=1.6209502220153809|32=1|54=2|55=MER|155=USD|10=046|
8=FIX.4.2|9=103|35=8|34=180|49=BROKER|52=20210312-16:36:07.516|56=CLIENT|31=1.0911271572113037|32=22|54=1|55=TJM|254=1|10=159|
8=FIX.4.2|9=104|35=8|34=181|49=BROKER|52=20210312-16:36:07.516|56=CLIENT|31=1.4559311866760254|32=8|54=G|55=AHZ|155=USD|10=084|
8=FIX.4.2|9=105|35=8|34=182|49=BROKER|52=20210312-16:36:07.516|56=CLIENT|31=1.6527196168899536|32=97|54=2|55=MVH|155=USD|10=148|
8=FIX.4.2|9=105|35=8|34=183|49=BROKER|52=20210312-16:36:07.516|56=CLIENT|31=1.6036523580551147|32=91|54=2|55=CBX|155=USD|10=099|
8=FIX.4.2|9=105|35=8|34=184|49=BROKER|52=20210312-16:36:07.516|56=CLIENT|31=1.5016344785690308|32=57|54=2|55=MAP|155=USD|10=111|
8=FIX.4.2|9=105|35=8|34=185|49=BROKER|52=20210312-16:36:07.516|56=CLIENT|31=1.0371205806732178|32=77|54=1|55=GNA|155=USD|10=096|
8=FIX.4.2|9=105|35=8|34=186|49=BROKER|52=20210312-16:36:07.516|56=CLIENT|31=1.0804779529571533|32=56|54=2|55=FKK|155=USD|10=116|
8=FIX.4.2|9=105|35=8|34=187|49=BROKER|52=20210312-16:36:07.516|56=CLIENT|31=1.6592462062835693|32=73|54=2|55=DKN|155=USD|10=118|
8=FIX.4.2|9=105|35=8|34=188|49=BROKER|52=20210312-16:36:07.516|56=CLIENT|31=1.6823809146881104|32=40|54=1|55=RVD|155=USD|10=120|
8=FIX.4.2|9=85|35=8|34=189|49=BROKER|52=20210312-16:36:07.516|56=CLIENT|31=1.3206603527069092|32=20|10=020|
8=FIX.4.2|9=104|35=8|34=190|49=BROKER|52=20210312-16:36:07.516|56=CLIENT|31=1.5471822023391724|32=9|54=2|55=NWC|155=USD|10=057|
8=FIX.4.2|9=88|35=8|34=191|49=BROKER|52=20210312-16:36:07.516|56=CLIENT|31=0|32=47|54=2|55=GMS|155=USD|10=219|
8=FIX.4.2|9=103|35=8|34=192|49=BROKER|52=20210312-16:36:07.516|56=CLIENT|31=1.55410635471344|32=10|54=2|55=MJJ|155=USD|10=243|
8=FIX.4.2|9=104|35=8|34=193|49=BROKER|52=20210312-16:36:07.516|56=CLIENT|31=1.472314476966858|32=48|54=N|55=PYN|155=USD|10=126|
8=FIX.4.2|9=101|35=8|34=194|49=BROKER|52=20210312-16:36:07.516|56=CLIENT|31=1.482177734375|32=81|54=2|55=QUQ|155=USD|10=183|
8=FIX.4.2|9=105|35=8|34=195|49=BROKER|52=20210312-16:36:07.516|56=CLIENT|31=1.0277431011199951|32=97|54=2|55=KMX|155=USD|10=126|
8=FIX.4.2|9=105|35=8|34=196|49=BROKER|52=20210312-16:36:07.516|56=CLIENT|31=1.525794267654419|32=14|54=1|55=LFLL|155=USD|10=141|
8=FIX.4.2|9=85|35=8|34=197|49=BROKER|52=20210312-16:36:07.516|56=CLIENT|31=1.605844497680664|32=100|10=035|
8=FIX.4.2|9=105|35=8|34=198|49=BROKER|52=20210312-16:36:07.516|56=CLIENT|31=1.6051442623138428|32=24|54=2|55=WXP|155=USD|10=133|
8=FIX.4.2|9=106|35=8|34=199|49=BROKER|52=20210312-16:36:07.516|56=CLIENT|31=1.5094279050827026|32=91|54=2|55=VCBX|155=USD|10=198|
8=FIX.4.2|9=85|35=8|34=200|49=BROKER|52=20210312-16:36:07.516|56=CLIENT|31=1.6715037822723389|32=11|10=017|
8=FIX.4.2|9=105|35=8|34=201|49=BROKER|52=20210312-16:36:07.516|56=CLIENT|31=1.2468219995498657|32=59|54=2|55=MER|155=USD|10=134|
8=FIX.4.2|9=105|35=8|34=202|49=BROKER|52=20210312-16:36:07.516|56=CLIENT|31=1.4868557453155518|32=89|54=1|55=MER|155=USD|10=123|
8=FIX.4.2|9=105|35=8|34=203|49=BROKER|52=20210312-16:36:07.516|56=CLIENT|31=1.7154545783996582|32=42|54=2|55=UXD|155=USD|10=135|
8=FIX.4.2|9=105|35=8|34=204|49=BROKER|52=20210312-16:36:07.516|56=CLIENT|31=1.2214329242706299|32=54|54=2|55=UOS|155=USD|10=121|
8=FIX.4.2|9=104|35=8|34=205|49=BROKER|52=20210312-16:36:07.516|56=CLIENT|31=1.197995901107788|32=83|54=2|55=LUT|155=USD|10=090|
8=FIX.4.2|9=106|35=8|34=206|49=BROKER|52=20210312-16:36:07.516|56=CLIENT|31=1.2531559467315674|32=52|54=2|55=DWWT|155=USD|10=210|
8=FIX.4.2|9=105|35=8|34=207|49=BROKER|52=20210312-16:36:07.516|56=CLIENT|31=1.0442583560943604|32=56|54=R|55=MVH|155=USD|10=145|
8=FIX.4.2|9=85|35=8|34=208|49=BROKER|52=20210312-16:36:07.516|56=CLIENT|31=1.8913333415985107|32=78|10=035|
8=FIX.4.2|9=105|35=8|34=209|49=BROKER|52=20210312-16:36:07.516|56=CLIENT|31=1.0727159976959229|32=21|54=1|55=QTX|155=USD|10=150|
8=FIX.4.2|9=105|35=8|34=210|49=BROKER|52=20210312-16:36:07.516|56=CLIENT|31=1.9121229648590088|32=27|54=2|55=QSN|155=USD|10=123|
8=FIX.4.2|9=105|35=8|34=211|49=BROKER|52=20210312-16:36:07.516|56=CLIENT|31=1.1095280647277832|32=65|54=1|55=HTH|155=USD|10=108|
8=FIX.4.2|9=105|35=8|34=212|49=BROKER|52=20210312-16:36:07.516|56=CLIENT|31=1.3575857877731323|32=64|54=2|55==NQ|155=USD|10=111|
8=FIX.4.2|9=105|35=8|34=213|49=BROKER|52=20210312-16:36:07.516|56=CLIENT|31=1.0434553623199463|32=95|54=2|55=AFP|155=USD|10=097|
8=FIX.4.2|9=104|35=8|34=214|49=BROKER|52=20210312-16:36:07.516|56=CLIENT|31=1.810739278793335|32=98|54=2|55=ZLC|155=USD|10=078|
8=FIX.4.2|9=105|35=8|34=215|49=BROKER|52=20210312-16:36:07.516|56=CLIENT|31=1.3840323686599731|32=77|54=G|55=SLT|155=USD|10=158|
8=FIX.4.2|9=104|35=8|34=216|49=BROKER|52=20210312-16:36:07.516|56=CLIENT|31=1.856602430343628|32=23|54=H|55=KLD|155=USD|10=061|
8=FIX.4.2|9=103|35=8|34=217|49=BROKER|52=20210312-16:36:07.516|56=CLIENT|31=1.2083488702774048|32=52|54=2|55=VKU|254=1|10=197|
8=FIX.4.2|9=105|35=8|34=218|49=BROKER|52=20210312-16:36:07.516|56=CLIENT|31=1.2250217199325562|32=21|54=1|55=FGP|155=USD|10=090|
8=FIX.4.2|9=84|35=8|34=219|49=BROKER|52=20210312-16:36:07.516|56=CLIENT|31=1.216354489326477|32=89|10=247|
8=FIX.4.2|9=103|35=8|34=220|49=BROKER|52=20210312-16:36:07.516|56=CLIENT|31=1.69089674949646|32=4|54=N|55=FUEH|155=USD|10=068|
8=FIX.4.2|9=103|35=8|34=221|49=BROKER|52=20210312-16:36:07.516|56=CLIENT|31=1.8231539726257324|32=23|54=2|55=GVB|254=1|10=164|
8=FIX.4.2|9=105|35=8|34=222|49=BROKER|52=20210312-16:36:07.516|56=CLIENT|31=1.3207427263259888|32=19|54=2|55=PNR|155=USD|10=127|
8=FIX.4.2|9=105|35=8|34=223|49=BROKER|52=20210312-16:36:07.516|56=CLIENT|31=1.3469616174697876|32=53|54=2|55=SQF|155=USD|10=134|
8=FIX.4.2|9=103|35=8|34=224|49=BROKER|52=20210312-16:36:07.516|56=CLIENT|31=1.3505849838256836|32=96|54=1|55=ZHJ|254=1|10=203|
8=FIX.4.2|9=104|35=8|34=225|49=BROKER|52=20210312-16:36:07.516|56=CLIENT|31=1.0810731649398804|32=5|54=2|55=ALB|155=USD|10=038|
8=FIX.4.2|9=105|35=8|34=226|49=BROKER|52=20210312-16:36:07.516|56=CLIENT|31=1.3186500072479248|32=30|54=2|55=JHI|155=USD|10=093|
8=FIX.4.2|9=105|35=8|34=227|49=BROKER|52=20210312-16:36:07.516|56=CLIENT|31=1.9321966171264648|32=24|54=2|55=RRD|155=USD|10=119|
8=FIX.4.2|9=85|35=8|34=228|49=BROKER|52=20210312-16:36:07.516|56=CLIENT|31=1.0851802825927734|32=77|10=037|
8=FIX.4.2|9=85|35=8|34=229|49=BROKER|52=20210312-16:36:07.516|56=CLIENT|31=1.8965305089950562|32=79|10=049|
8=FIX.4.2|9=103|35=8|34=230|49=BROKER|52=20210312-16:36:07.516|56=CLIENT|31=1.7100698947906494|32=34|54=2|55=SQF|254=1|10=191|
8=FIX.4.2|9=105|35=8|34=231|49=BROKER|52=20210312-16:36:07.516|56=CLIENT|31=1.7403653860092163|32=86|54=1|55=KOV|155=USD|10=117|
8=FIX.4.2|9=105|35=8|34=232|49=BROKER|52=20210312-16:36:07.516|56=CLIENT|31=1.1047101020812988|32=48|54=2|55=CFS|155=USD|10=086|
8=FIX.4.2|9=105|35=8|34=233|49=BROKER|52=20210312-16:36:07.516|56=CLIENT|31=1.1725331544876099|32=81|54=2|55=FXU|155=USD|10=129|
8=FIX.4.2|9=85|35=8|34=234|49=BROKER|52=20210312-16:36:07.516|56=CLIENT|31=1.3157193660736084|32=80|10=026|
8=FIX.4.2|9=105|35=8|34=235|49=BROKER|52=20210312-16:36:07.516|56=CLIENT|31=1.114685297012329|32=-30|54=2|55=OVF|155=USD|10=100|
8=FIX.4.2|9=105|35=8|34=236|49=BROKER|52=20210312-16:36:07.516|56=CLIENT|31=1.4145175218582153|32=30|54=2|55=IFV|155=USD|10=100|
8=FIX.4.2|9=105|35=8|34=237|49=BROKER|52=20210312-16:36:07.516|56=CLIENT|31=1.6597192287445068|32=43|54=1|55=AZL|155=USD|10=127|
8=FIX.4.2|9=103|35=8|34=238|49=BROKER|52=20210312-16:36:07.516|56=CLIENT|31=1.2854114770889282|32=69|54=Y|55=EZQ|254=1|10=245|
8=FIX.4.2|9=104|35=8|34=239|49=BROKER|52=20210312-16:36:07.516|56=CLIENT|31=1.721754789352417|32=49|54=1|55=RAJ|155=USD|10=065|
8=FIX.4.2|9=105|35=8|34=240|49=BROKER|52=20210312-16:36:07.516|56=CLIENT|31=1.7303054332733154|32=82|54=M|55=ZJQ|155=USD|10=136|
8=FIX.4.2|9=104|35=8|34=241|49=BROKER|52=20210312-16:36:07.516|56=CLIENT|31=1.276961326599121|32=MU|54=2|55=SPQ|155=USD|10=132|
8=FIX.4.2|9=105|35=8|34=242|49=BROKER|52=20210312-16:36:07.516|56=CLIENT|31=1.0929160118103027|32=84|54=1|55=ZBS|155=USD|10=103|
8=FIX.4.2|9=105|35=8|34=243|49=BROKER|52=20210312-16:36:07.516|56=CLIENT|31=1.7918087244033813|32=27|54=2|55=DJJ|155=USD|10=097|
8=FIX.4.2|9=105|35=8|34=244|49=BROKER|52=20210312-16:36:07.516|56=CLIENT|31=1.9144887924194336|32=77|54=2|55=JUM|155=USD|10=137|
8=FIX.4.2|9=85|35=8|34=245|49=BROKER|52=20210312-16:36:07.516|56=CLIENT|31=0|32=18|54=2|55=|155=USD|10=239|
8=FIX.4.2|9=105|35=8|34=246|49=BROKER|52=20210312-16:36:07.516|56=CLIENT|31=1.2784318923950195|32=16|54=2|55=OKA|155=USD|10=109|
8=FIX.4.2|9=105|35=8|34=247|49=BROKER|52=20210312-16:36:07.516|56=CLIENT|31=1.2141938209533691|32=30|54=H|55=MNE|155=USD|10=123|
8=FIX.4.2|9=105|35=8|34=248|49=BROKER|52=20210312-16:36:07.516|56=CLIENT|31=1.4590985774993896|32=40|54=2|55=LDS|155=USD|10=142|
8=FIX.4.2|9=105|35=8|34=249|49=BROKER|52=20210312-16:36:07.516|56=CLIENT|31=1.1090151071548462|32=87|54=2|55=OVF|155=USD|10=114|
8=FIX.4.2|9=105|35=8|34=250|49=BROKER|52=20210312-16:36:07.516|56=CLIENT|31=1.8320955038070679|32=75|54=2|55=UOS|155=USD|10=133|
8=FIX.4.2|9=105|35=8|34=251|49=BROKER|52=20210312-16:36:07.516|56=CLIENT|31=1.7662858963012695|32=48|54=2|55=VMK|155=USD|10=136|
8=FIX.4.2|9=105|35=8|34=252|49=BROKER|52=20210312-16:36:07.516|56=CLIENT|31=1.6350210905075073|32=77|54=2|55=MLF|155=USD|10=094|
8=FIX.4.2|9=105|35=8|34=253|49=BROKER|52=20210312-16:36:07.516|56=CLIENT|31=1.4636342525482178|32=18|54=2|55=EYC|155=USD|10=109|
8=FIX.4.2|9=88|35=8|34=254|49=BROKER|52=20210312-16:36:07.516|56=CLIENT|31=JS|32=4|54=2|55=TCO|155=USD|10=016|
8=FIX.4.2|9=105|35=8|34=255|49=BROKER|52=20210312-16:36:07.516|56=CLIENT|31=1.5182480812072754|32=39|54=2|55=YQY|155=USD|10=142|
8=FIX.4.2|9=105|35=8|34=256|49=BROKER|52=20210312-16:36:07.516|56=CLIENT|31=1.7185437679290771|32=43|54=2|55=TOJ|155=USD|10=135|
8=FIX.4.2|9=105|35=8|34=257|49=BROKER|52=20210312-16:36:07.516|56=CLIENT|31=1.4889986515045166|32=86|54=2|55=LMM|155=USD|10=138|
8=FIX.4.2|9=105|35=8|34=258|49=BROKER|52=20210312-16:36:07.516|56=CLIENT|31=1.4808956384658813|32=40|54=2|55=RVD|155=USD|10=136|
8=FIX.4.2|9=105|35=8|34=259|49=BROKER|52=20210312-16:36:07.516|56=CLIENT|31=1.5925487279891968|32=44|54=2|55=QRT|155=USD|10=165|
8=FIX.4.2|9=103|35=8|34=260|49=BROKER|52=20210312-16:36:07.516|56=CLIENT|31=1.412226676940918|32=8|54=2|55=YCO|155=USD|10=015|
8=FIX.4.2|9=105|35=8|34=261|49=BROKER|52=20210312-16:36:07.516|56=CLIENT|31=1.7770919799804688|32=48|54=2|55=VWH|155=USD|10=160|
8=FIX.4.2|9=103|35=8|34=262|49=BROKER|52=20210312-16:36:07.516|56=CLIENT|31=1.2676501274108887|32=82|54=2|55=TYN|254=1|10=205|
8=FIX.4.2|9=102|35=8|34=263|49=BROKER|52=20210312-16:36:07.516|56=CLIENT|31=1.404450535774231|32=65|54=1|55=DOT|254=1|10=119|
8=FIX.4.2|9=102|35=8|34=264|49=BROKER|52=20210312-16:36:07.516|56=CLIENT|31=1.369993805885315|32=22|54=2|55=GXQ|254=1|10=151|
8=FIX.4.2|9=102|35=8|34=265|49=BROKER|52=20210312-16:36:07.516|56=CLIENT|31=1.640479564666748|32=96|54=2|55=ACZ|254=1|10=145|
8=FIX.4.2|9=105|35=8|34=266|49=BROKER|52=20210312-16:36:07.516|56=CLIENT|31=1.3041020631790161|32=PR|54=2|55=GJH|155=USD|10=136|
8=FIX.4.2|9=84|35=8|34=267|49=BROKER|52=20210312-16:36:07.516|56=CLIENT|31=1.089285969734192|32=54|10=253|
8=FIX.4.2|9=104|35=8|34=268|49=BROKER|52=20210312-16:36:07.516|56=CLIENT|31=1.429587960243225|32=63|54=2|55=HSB|155=USD|10=060|
8=FIX.4.2|9=105|35=8|34=269|49=BROKER|52=20210312-16:36:07.516|56=CLIENT|31=1.6458826065063477|32=55|54=1|55=RYX|155=USD|10=157|
8=FIX.4.2|9=104|35=8|34=270|49=BROKER|52=20210312-16:36:07.516|56=CLIENT|31=1.520056962966919|32=77|54=J|55==KN|155=USD|10=082|
8=FIX.4.2|9=106|35=8|34=271|49=BROKER|52=20210312-16:36:07.516|56=CLIENT|31=1.6461708545684814|32=-27|54=2|55=TJM|155=USD|10=172|
8=FIX.4.2|9=106|35=8|34=272|49=BROKER|52=20210312-16:36:07.516|56=CLIENT|31=1.7001219987869263|32=97|54=2|55=ELMM|155=USD|10=200|
8=FIX.4.2|9=85|35=8|34=273|49=BROKER|52=20210312-16:36:07.516|56=CLIENT|31=1.4352389574050903|32=47|10=030|
8=FIX.4.2|9=105|35=8|34=274|49=BROKER|52=20210312-16:36:07.516|56=CLIENT|31=1.4219684600830078|32=34|54=1|55=SPQ|155=USD|10=124|
8=FIX.4.2|9=85|35=8|34=275|49=BROKER|52=20210312-16:36:07.516|56=CLIENT|31=1.8372682332992554|32=27|10=041|
8=FIX.4.2|9=105|35=8|34=276|49=BROKER|52=20210312-16:36:07.516|56=CLIENT|31=1.9461967945098877|32=99|54=2|55=AZW|155=USD|10=169|
8=FIX.4.2|9=105|35=8|34=277|49=BROKER|52=20210312-16:36:07.516|56=CLIENT|31=1.7430741786956787|32=65|54=2|55=SVG|155=USD|10=151|
8=FIX.4.2|9=105|35=8|34=278|49=BROKER|52=20210312-16:36:07.516|56=CLIENT|31=1.6238151788711548|32=29|54=2|55=UDT|155=USD|10=135|
8=FIX.4.2|9=105|35=8|34=279|49=BROKER|52=20210312-16:36:07.516|56=CLIENT|31=1.0063170194625854|32=44|54=2|55=ODE|155=USD|10=098|
8=FIX.4.2|9=103|35=8|34=280|49=BROKER|52=20210312-16:36:07.516|56=CLIENT|31=1.9041600227355957|32=22|54=H|55=QFB|254=1|10=180|
8=FIX.4.2|9=85|35=8|34=281|49=BROKER|52=20210312-16:36:07.516|56=CLIENT|31=1.3249821662902832|32=15|10=024|
8=FIX.4.2|9=105|35=8|34=282|49=BROKER|52=20210312-16:36:07.516|56=CLIENT|31=1.3607125282287598|32=28|54=2|55=GNP|155=USD|10=121|
8=FIX.4.2|9=85|35=8|34=283|49=BROKER|52=20210312-16:36:07.516|56=CLIENT|31=1.7555298805236816|32=79|10=049|
8=FIX.4.2|9=105|35=8|34=284|49=BROKER|52=20210312-16:36:07.516|56=CLIENT|31=1.2593750953674316|32=75|54=2|55=SVV|155=USD|10=151|
8=FIX.4.2|9=104|35=8|34=285|49=BROKER|52=20210312-16:36:07.516|56=CLIENT|31=1.9161007404327393|32=-11|54=1|55=DCE|254=1|10=187|
8=FIX.4.2|9=105|35=8|34=286|49=BROKER|52=20210312-16:36:07.516|56=CLIENT|31=1.152123212814331|32=83|54=1|55=JIVA|155=USD|10=110|
8=FIX.4.2|9=105|35=8|34=287|49=BROKER|52=20210312-16:36:07.516|56=CLIENT|31=1.4471701383590698|32=16|54=1|55=RAJ|155=USD|10=114|
8=FIX.4.2|9=105|35=8|34=288|49=BROKER|52=20210312-16:36:07.516|56=CLIENT|31=1.7930607795715332|32=69|54=2|55=MER|155=USD|10=130|
8=FIX.4.2|9=105|35=8|34=289|49=BROKER|52=20210312-16:36:07.517|56=CLIENT|31=1.2137764692306519|32=89|54=J|55=LMY|155=USD|10=169|
8=FIX.4.2|9=85|35=8|34=290|49=BROKER|52=20210312-16:36:07.517|56=CLIENT|31=1.0797947645187378|32=67|10=057|
8=FIX.4.2|9=105|35=8|34=291|49=BROKER|52=20210312-16:36:07.517|56=CLIENT|31=1.9113409519195557|32=9|54=2|55=OSWQ|155=USD|10=173|
8=FIX.4.2|9=104|35=8|34=292|49=BROKER|52=20210312-16:36:07.517|56=CLIENT|31=1.0135762691497803|32=0|54=O|55=AUK|155=USD|10=085|
8=FIX.4.2|9=104|35=8|34=293|49=BROKER|52=20210312-16:36:07.517|56=CLIENT|31=1.6829376220703125|32=5|54=2|55=ZWV|155=USD|10=092|
8=FIX.4.2|9=105|35=8|34=294|49=BROKER|52=20210312-16:36:07.517|56=CLIENT|31=1.5940577983856201|32=73|54=2|55=PXP|155=USD|10=148|
8=FIX.4.2|9=105|35=8|34=295|49=BROKER|52=20210312-16:36:07.517|56=CLIENT|31=1.4246196746826172|32=34|54=1|55=YQY|155=USD|10=152|
8=FIX.4.2|9=104|35=8|34=296|49=BROKER|52=20210312-16:36:07.517|56=CLIENT|31=1.7560722827911377|32=7|54=E|55=QRI|155=USD|10=100|
8=FIX.4.2|9=105|35=8|34=297|49=BROKER|52=20210312-16:36:07.517|56=CLIENT|31=1.9528155326843262|32=78|54=2|55=QYH|155=USD|10=142|
8=FIX.4.2|9=103|35=8|34=298|49=BROKER|52=20210312-16:36:07.517|56=CLIENT|31=1.4129972457885742|32=88|54=2|55=USX|254=1|10=238|
8=FIX.4.2|9=105|35=8|34=299|49=BROKER|52=20210312-16:36:07.517|56=CLIENT|31=1.9964836835861206|32=87|54=2|55=TPO|155=USD|10=158|
8=FIX.4.2|9=104|35=8|34=300|49=BROKER|52=20210312-16:36:07.517|56=CLIENT|31=1.9095451831817627|32=0|54=2|55=GCM|155=USD|10=041|
8=FIX.4.2|9=105|35=8|34=301|49=BROKER|52=20210312-16:36:07.517|56=CLIENT|31=1.3552184104919434|32=36|54=2|55=OCZ|155=USD|10=108|
8=FIX.4.2|9=105|35=8|34=302|49=BROKER|52=20210312-16:36:07.517|56=CLIENT|31=1.6485049724578857|32=72|54=2|55=CNQ|155=USD|10=125|
8=FIX.4.2|9=103|35=8|34=303|49=BROKER|52=20210312-16:36:07.517|56=CLIENT|31=1.4531580209732056|32=96|54=2|55=KZZ|254=1|10=199|
8=FIX.4.2|9=104|35=8|34=304|49=BROKER|52=20210312-16:36:07.517|56=CLIENT|31=1.914046287536621|32=96|54=2|55=ARZ|155=USD|10=070|
8=FIX.4.2|9=104|35=8|34=305|49=BROKER|52=20210312-16:36:07.517|56=CLIENT|31=1.1554220914840698|32=6|54=2|55=DPO|155=USD|10=056|
8=FIX.4.2|9=104|35=8|34=306|49=BROKER|52=20210312-16:36:07.517|56=CLIENT|31=1.065341591835022|32=34|54=K|55=EYC|155=USD|10=067|
8=FIX.4.2|9=105|35=8|34=307|49=BROKER|52=20210312-16:36:07.517|56=CLIENT|31=1.4401524066925049|32=93|54=2|55=JWQ|155=USD|10=121|
8=FIX.4.2|9=103|35=8|34=308|49=BROKER|52=20210312-16:36:07.517|56=CLIENT|31=1.1668310165405273|32=12|54=1|55=XKQ|254=1|10=178|
8=FIX.4.2|9=105|35=8|34=309|49=BROKER|52=20210312-16:36:07.517|56=CLIENT|31=1.7422740459442139|32=83|54=2|55=LDA|155=USD|10=095|
8=FIX.4.2|9=105|35=8|34=310|49=BROKER|52=20210312-16:36:07.517|56=CLIENT|31=1.3506698608398438|32=77|54=2|55=JKS|155=USD|10=132|
8=FIX.4.2|9=105|35=8|34=311|49=BROKER|52=20210312-16:36:07.517|56=CLIENT|31=1.5678043365478516|32=73|54=2|55=SKA|155=USD|10=112|
8=FIX.4.2|9=105|35=8|34=312|49=BROKER|52=20210312-16:36:07.517|56=CLIENT|31=1.0163025856018066|32=27|54=2|55=NYO|155=USD|10=114|
8=FIX.4.2|9=105|35=8|34=313|49=BROKER|52=20210312-16:36:07.517|56=CLIENT|31=1.1072016954421997|32=51|54=2|55=EBY|155=USD|10=100|
8=FIX.4.2|9=105|35=8|34=314|49=BROKER|52=20210312-16:36:07.517|56=CLIENT|31=1.7356278896331787|32=32|54=H|55=CWF|155=USD|10=145|
8=FIX.4.2|9=105|35=8|34=315|49=BROKER|52=20210312-16:36:07.517|56=CLIENT|31=1.6680705547332764|32=45|54=2|55=JUM|155=USD|10=123|
8=FIX.4.2|9=105|35=8|34=316|49=BROKER|52=20210312-16:36:07.517|56=CLIENT|31=1.4960072040557861|32=22|54=2|55=WSR|155=USD|10=126|
8=FIX.4.2|9=105|35=8|34=317|49=BROKER|52=20210312-16:36:07.517|56=CLIENT|31=1.6445424556732178|32=65|54=2|55=IYE|155=USD|10=122|
8=FIX.4.2|9=102|35=8|34=318|49=BROKER|52=20210312-16:36:07.517|56=CLIENT|31=1.468097448348999|32=100|54=1|55=|155=USD|10=153|
8=FIX.4.2|9=105|35=8|34=319|49=BROKER|52=20210312-16:36:07.517|56=CLIENT|31=1.8886244297027588|32=27|54=2|55=IMK|155=USD|10=131|
8=FIX.4.2|9=103|35=8|34=320|49=BROKER|52=20210312-16:36:07.517|56=CLIENT|31=1.3295997381210327|32=48|54=1|55=SJF|254=1|10=177|
8=FIX.4.2|9=105|35=8|34=321|49=BROKER|52=20210312-16:36:07.517|56=CLIENT|31=1.7919597625732422|32=28|54=2|55=DOT|155=USD|10=123|
8=FIX.4.2|9=105|35=8|34=322|49=BROKER|52=20210312-16:36:07.517|56=CLIENT|31=1.3786813020706177|32=93|54=2|55=XYE|155=USD|10=127|
8=FIX.4.2|9=105|35=8|34=323|49=BROKER|52=20210312-16:36:07.517|56=CLIENT|31=1.6058602333068848|32=84|54=2|55=KMX|155=USD|10=126|
8=FIX.4.2|9=104|35=8|34=324|49=BROKER|52=20210312-16:36:07.517|56=CLIENT|31=1.0093878507614136|32=100|54=2|55=ANA|254=1|10=198|
8=FIX.4.2|9=104|35=8|34=325|49=BROKER|52=20210312-16:36:07.517|56=CLIENT|31=1.2472137212753296|32=0|54=2|55=NSF|155=USD|10=051|
8=FIX.4.2|9=85|35=8|34=326|49=BROKER|52=20210312-16:36:07.517|56=CLIENT|31=1.4251377582550049|32=57|10=031|
8=FIX.4.2|9=102|35=8|34=327|49=BROKER|52=20210312-16:36:07.517|56=CLIENT|31=1.555895447731018|32=34|54=2|55=XKQ|254=1|10=149|
8=FIX.4.2|9=105|35=8|34=328|49=BROKER|52=20210312-16:36:07.517|56=CLIENT|31=1.4708479642868042|32=75|54=2|55=CBF|155=USD|10=103|
8=FIX.4.2|9=105|35=8|34=329|49=BROKER|52=20210312-16:36:07.517|56=CLIENT|31=1.5696799755096436|32=89|54=1|55=EJT|155=USD|10=149|
8=FIX.4.2|9=89|35=8|34=330|49=BROKER|52=20210312-16:36:07.517|56=CLIENT|31=LX|32=16|54=2|55=STF|155=USD|10=078|
8=FIX.4.2|9=100|35=8|34=331|49=BROKER|52=20210312-16:36:07.517|56=CLIENT|31=1.1208451986312866|32=65|54=2|55=|254=1|10=204|
8=FIX.4.2|9=105|35=8|34=332|49=BROKER|52=20210312-16:36:07.517|56=CLIENT|31=1.3265159130096436|32=69|54=1|55=JHI|155=USD|10=100|
8=FIX.4.2|9=103|35=8|34=333|49=BROKER|52=20210312-16:36:07.517|56=CLIENT|31=1.45265793800354|32=97|54=U|55=MBD|155=USD|10=030|
8=FIX.4.2|9=105|35=8|34=334|49=BROKER|52=20210312-16:36:07.517|56=CLIENT|31=1.4725711345672607|32=74|54=2|55=IGL|155=USD|10=104|
8=FIX.4.2|9=105|35=8|34=335|49=BROKER|52=20210312-16:36:07.517|56=CLIENT|31=1.2267260551452637|32=80|54=1|55=FKF|155=USD|10=092|
8=FIX.4.2|9=105|35=8|34=336|49=BROKER|52=20210312-16:36:07.517|56=CLIENT|31=1.6438466310501099|32=92|54=M|55=TJM|155=USD|10=146|
8=FIX.4.2|9=103|35=8|34=337|49=BROKER|52=20210312-16:36:07.517|56=CLIENT|31=1.256010890007019|32=1|54=2|55=JPM|155=USD|10=247|
8=FIX.4.2|9=105|35=8|34=338|49=BROKER|52=20210312-16:36:07.517|56=CLIENT|31=1.8542883396148682|32=67|54=2|55=BEY|155=USD|10=132|
8=FIX.4.2|9=106|35=8|34=339|49=BROKER|52=20210312-16:36:07.517|56=CLIENT|31=1.2661356925964355|32=93|54=2|55=UUOT|155=USD|10=234|
8=FIX.4.2|9=106|35=8|34=340|49=BROKER|52=20210312-16:36:07.517|56=CLIENT|31=1.1473678350448608|32=16|54=2|55=EBUO|155=USD|10=184|
8=FIX.4.2|9=104|35=8|34=341|49=BROKER|52=20210312-16:36:07.517|56=CLIENT|31=1.9672720432281494|32=0|54=1|55=KXV|155=USD|10=073|
8=FIX.4.2|9=105|35=8|34=342|49=BROKER|52=20210312-16:36:07.517|56=CLIENT|31=1.5076359510421753|32=20|54=2|55=PJZ|155=USD|10=114|
8=FIX.4.2|9=105|35=8|34=343|49=BROKER|52=20210312-16:36:07.517|56=CLIENT|31=1.2718915939331055|32=61|54=2|55=CUG|155=USD|10=107|
8=FIX.4.2|9=105|35=8|34=344|49=BROKER|52=20210312-16:36:07.517|56=CLIENT|31=1.0927233695983887|32=93|54=2|55=KLD|155=USD|10=127|
8=FIX.4.2|9=84|35=8|34=345|49=BROKER|52=20210312-16:36:07.517|56=CLIENT|31=1.869016408920288|32=37|10=241|
8=FIX.4.2|9=103|35=8|34=346|49=BROKER|52=20210312-16:36:07.517|56=CLIENT|31=1.881709098815918|32=0|54=1|55=ZJQ|155=USD|10=037|
8=FIX.4.2|9=103|35=8|34=347|49=BROKER|52=20210312-16:36:07.517|56=CLIENT|31=1.6070210933685303|32=88|54=2|55=VIT|254=1|10=192|
8=FIX.4.2|9=102|35=8|34=348|49=BROKER|52=20210312-16:36:07.517|56=CLIENT|31=1.009762167930603|32=78|54=2|55=MBT|254=1|10=130|
8=FIX.4.2|9=105|35=8|34=349|49=BROKER|52=20210312-16:36:07.517|56=CLIENT|31=1.4373688697814941|32=84|54=2|55=RGB|155=USD|10=131|
8=FIX.4.2|9=103|35=8|34=350|49=BROKER|52=20210312-16:36:07.517|56=CLIENT|31=1.09762704372406|32=13|54=2|55=MER|155=USD|10=251|
8=FIX.4.2|9=105|35=8|34=351|49=BROKER|52=20210312-16:36:07.517|56=CLIENT|31=1.1522715091705322|32=52|54=2|55=CTW|155=USD|10=102|
8=FIX.4.2|9=84|35=8|34=352|49=BROKER|52=20210312-16:36:07.517|56=CLIENT|31=1.6611003875732422|32=1|10=216|
8=FIX.4.2|9=104|35=8|34=353|49=BROKER|52=20210312-16:36:07.517|56=CLIENT|31=1.161303162574768|32=87|54=2|55=QOS|155=USD|10=076|
8=FIX.4.2|9=104|35=8|34=354|49=BROKER|52=20210312-16:36:07.517|56=CLIENT|31=1.818468451499939|32=19|54=2|55=HVB|155=USD|10=081|
8=FIX.4.2|9=105|35=8|34=355|49=BROKER|52=20210312-16:36:07.517|56=CLIENT|31=1.6021844148635864|32=24|54=2|55=ANA|155=USD|10=093|
8=FIX.4.2|9=104|35=8|34=356|49=BROKER|52=20210312-16:36:07.517|56=CLIENT|31=1.2651487588882446|32=26|54=1|55=FPJZ|254=1|10=029|
8=FIX.4.2|9=105|35=8|34=357|49=BROKER|52=20210312-16:36:07.517|56=CLIENT|31=1.2407026290893555|32=91|54=1|55=WVK|155=USD|10=135|
8=FIX.4.2|9=105|35=8|34=358|49=BROKER|52=20210312-16:36:07.517|56=CLIENT|31=1.7162678241729736|32=15|54=C|55=EJH|155=USD|10=128|
8=FIX.4.2|9=105|35=8|34=359|49=BROKER|52=20210312-16:36:07.517|56=CLIENT|31=1.3693808317184448|32=16|54=2|55=NSZ|155=USD|10=148|
8=FIX.4.2|9=88|35=8|34=360|49=BROKER|52=20210312-16:36:07.517|56=CLIENT|31=0|32=30|54=2|55=UEH|155=USD|10=205|
8=FIX.4.2|9=84|35=8|34=361|49=BROKER|52=20210312-16:36:07.517|56=CLIENT|31=1.6758215427398682|32=0|10=241|
8=FIX.4.2|9=105|35=8|34=362|49=BROKER|52=20210312-16:36:07.517|56=CLIENT|31=1.3646254539489746|32=77|54=2|55=CWV|155=USD|10=146|
8=FIX.4.2|9=105|35=8|34=363|49=BROKER|52=20210312-16:36:07.517|56=CLIENT|31=1.4427776336669922|32=18|54=2|55=NSF|155=USD|10=131|
8=FIX.4.2|9=103|35=8|34=364|49=BROKER|52=20210312-16:36:07.517|56=CLIENT|31=1.531925916671753|32=0|54=2|55=CWF|155=USD|10=005|
8=FIX.4.2|9=105|35=8|34=365|49=BROKER|52=20210312-16:36:07.517|56=CLIENT|31=1.7132128477096558|32=94|54=2|55=SBF|155=USD|10=117|
8=FIX.4.2|9=104|35=8|34=366|49=BROKER|52=20210312-16:36:07.517|56=CLIENT|31=1.909578800201416|32=99|54=2|55=ALB|155=USD|10=047|
8=FIX.4.2|9=106|35=8|34=367|49=BROKER|52=20210312-16:36:07.517|56=CLIENT|31=1.9815802574157715|32=-49|54=1|55=VWH|155=USD|10=190|
8=FIX.4.2|9=102|35=8|34=368|49=BROKER|52=20210312-16:36:07.517|56=CLIENT|31=1.7151777744293213|32=6|54=2|55=UJE|254=1|10=135|
8=FIX.4.2|9=105|35=8|34=369|49=BROKER|52=20210312-16:36:07.517|56=CLIENT|31=1.4858793020248413|32=66|54=2|55=NWV|155=USD|10=145|
8=FIX.4.2|9=105|35=8|34=370|49=BROKER|52=20210312-16:36:07.517|56=CLIENT|31=1.0619875192642212|32=97|54=2|55=REK|155=USD|10=113|
8=FIX.4.2|9=105|35=8|34=371|49=BROKER|52=20210312-16:36:07.517|56=CLIENT|31=1.5561333894729614|32=47|54=2|55=JUV|155=USD|10=139|
8=FIX.4.2|9=113|35=8|34=372|49=BROKER|52=20210312-16:36:07.517|56=CLIENT|21=COMM=2|31=1.1632015705108643|32=17|54=2|55=OVG|254=1|10=232|
8=FIX.4.2|9=104|35=8|34=373|49=BROKER|52=20210312-16:36:07.517|56=CLIENT|31=1.0224175453186035|32=3|54=1|55==CZ|155=USD|10=036|
8=FIX.4.2|9=103|35=8|34=374|49=BROKER|52=20210312-16:36:07.517|56=CLIENT|31=1.080689787864685|32=1|54=2|55=HSB|155=USD|10=024|
8=FIX.4.2|9=105|35=8|34=375|49=BROKER|52=20210312-16:36:07.517|56=CLIENT|31=1.0189167261123657|32=29|54=2|55=CTO|155=USD|10=117|
8=FIX.4.2|9=85|35=8|34=376|49=BROKER|52=20210312-16:36:07.517|56=CLIENT|31=1.0620626211166382|32=83|10=020|
8=FIX.4.2|9=105|35=8|34=377|49=BROKER|52=20210312-16:36:07.517|56=CLIENT|31=1.8046698570251465|32=49|54=1|55=YOR|155=USD|10=151|
8=FIX.4.2|9=84|35=8|34=378|49=BROKER|52=20210312-16:36:07.517|56=CLIENT|31=1.5992131233215332|32=0|10=220|
8=FIX.4.2|9=105|35=8|34=379|49=BROKER|52=20210312-16:36:07.517|56=CLIENT|31=1.1062414646148682|32=86|54=2|55=MLU|155=USD|10=130|
8=FIX.4.2|9=105|35=8|34=380|49=BROKER|52=20210312-16:36:07.517|56=CLIENT|31=1.9825795888900757|32=42|54=2|55=ACZ|155=USD|10=132|
8=FIX.4.2|9=105|35=8|34=381|49=BROKER|52=20210312-16:36:07.517|56=CLIENT|31=1.0406417846679688|32=92|54=2|55=FEG|155=USD|10=113|
8=FIX.4.2|9=105|35=8|34=382|49=BROKER|52=20210312-16:36:07.517|56=CLIENT|31=1.6030837297439575|32=64|54=2|55=IQJ|155=USD|10=125|
8=FIX.4.2|9=105|35=8|34=383|49=BROKER|52=20210312-16:36:07.517|56=CLIENT|31=1.3742597103118896|32=95|54=2|55=WEK|155=USD|10=129|
8=FIX.4.2|9=106|35=8|34=384|49=BROKER|52=20210312-16:36:07.517|56=CLIENT|31=1.2907904386520386|32=62|54=1|55=VOVG|155=USD|10=213|
8=FIX.4.2|9=104|35=8|34=385|49=BROKER|52=20210312-16:36:07.517|56=CLIENT|31=1.776397705078125|32=87|54=1|55=FKF|155=USD|10=066|
8=FIX.4.2|9=105|35=8|34=386|49=BROKER|52=20210312-16:36:07.517|56=CLIENT|31=1.1854172945022583|32=52|54=2|55=FZV|155=USD|10=132|
8=FIX.4.2|9=88|35=8|34=387|49=BROKER|52=20210312-16:36:07.517|56=CLIENT|31=0|32=71|54=1|55=AUK|155=USD|10=217|
8=FIX.4.2|9=103|35=8|34=388|49=BROKER|52=20210312-16:36:07.517|56=CLIENT|31=1.8090689182281494|32=76|54=2|55=SPQ|254=1|10=218|
8=FIX.4.2|9=101|35=8|34=389|49=BROKER|52=20210312-16:36:07.517|56=CLIENT|31=1.650291085243225|32=3|54=2|55=TJP|254=1|10=080|
8=FIX.4.2|9=105|35=8|34=390|49=BROKER|52=20210312-16:36:07.517|56=CLIENT|31=1.8150931596755981|32=34|54=2|55=IWC|155=USD|10=124|
8=FIX.4.2|9=84|35=8|34=391|49=BROKER|52=20210312-16:36:07.517|56=CLIENT|31=1.736999750137329|32=55|10=251|
8=FIX.4.2|9=102|35=8|34=392|49=BROKER|52=20210312-16:36:07.517|56=CLIENT|31=1.583950161933899|32=22|54=2|55=EZI|254=1|10=143|
8=FIX.4.2|9=86|35=8|34=393|49=BROKER|52=20210312-16:36:07.517|56=CLIENT|31=1.6114776134490967|32=-15|10=083|
8=FIX.4.2|9=85|35=8|34=394|49=BROKER|52=20210312-16:36:07.517|56=CLIENT|31=1.1294512748718262|32=53|10=034|
8=FIX.4.2|9=103|35=8|34=395|49=BROKER|52=20210312-16:36:07.517|56=CLIENT|31=1.074080467224121|32=2|54=2|55=YQY|155=USD|10=024|
8=FIX.4.2|9=104|35=8|34=396|49=BROKER|52=20210312-16:36:07.517|56=CLIENT|31=1.5926437377929688|32=0|54=2|55=UOS|155=USD|10=107|
8=FIX.4.2|9=105|35=8|34=397|49=BROKER|52=20210312-16:36:07.517|56=CLIENT|31=1.9046053886413574|32=24|54=2|55=XCQ|155=USD|10=130|
8=FIX.4.2|9=104|35=8|34=398|49=BROKER|52=20210312-16:36:07.517|56=CLIENT|31=1.1719316244125366|32=1|54=2|55=UZS|155=USD|10=087|
8=FIX.4.2|9=106|35=8|34=399|49=BROKER|52=20210312-16:36:07.517|56=CLIENT|31=1.1440364122390747|32=54|54=2|55=FUEH|155=USD|10=180|
8=FIX.4.2|9=105|35=8|34=400|49=BROKER|52=20210312-16:36:07.517|56=CLIENT|31=1.2994765043258667|32=74|54=1|55=QCN|155=USD|10=119|
8=FIX.4.2|9=105|35=8|34=401|49=BROKER|52=20210312-16:36:07.517|56=CLIENT|31=1.5677014589309692|32=88|54=2|55=PZL|155=USD|10=144|
8=FIX.4.2|9=105|35=8|34=402|49=BROKER|52=20210312-16:36:07.517|56=CLIENT|31=1.4041404724121094|32=94|54=2|55=PNR|155=USD|10=102|
8=FIX.4.2|9=105|35=8|34=403|49=BROKER|52=20210312-16:36:07.517|56=CLIENT|31=1.660435676574707|32=31|54=1|55=AFXU|155=USD|10=139|
8=FIX.4.2|9=105|35=8|34=404|49=BROKER|52=20210312-16:36:07.517|56=CLIENT|31=1.2834117412567139|32=43|54=2|55=EMI|155=USD|10=094|
8=FIX.4.2|9=104|35=8|34=405|49=BROKER|52=20210312-16:36:07.517|56=CLIENT|31=1.0860579013824463|32=1|54=2|55=LTL|155=USD|10=059|
8=FIX.4.2|9=103|35=8|34=406|49=BROKER|52=20210312-16:36:07.517|56=CLIENT|31=1.07444429397583|32=29|54=2|55=TEM|155=USD|10=018|
8=FIX.4.2|9=104|35=8|34=407|49=BROKER|52=20210312-16:36:07.517|56=CLIENT|31=1.059179425239563|32=24|54=2|55=UJE|155=USD|10=062|
8=FIX.4.2|9=105|35=8|34=408|49=BROKER|52=20210312-16:36:07.518|56=CLIENT|31=1.9780426025390625|32=63|54=1|55=VWH|155=USD|10=130|
8=FIX.4.2|9=105|35=8|34=409|49=BROKER|52=20210312-16:36:07.518|56=CLIENT|31=1.2902543544769287|32=62|54=2|55=EQK|155=USD|10=120|
8=FIX.4.2|9=84|35=8|34=410|49=BROKER|52=20210312-16:36:07.518|56=CLIENT|31=1.7564172744750977|32=0|10=236|
8=FIX.4.2|9=105|35=8|34=411|49=BROKER|52=20210312-16:36:07.518|56=CLIENT|31=1.7181568145751953|32=69|54=2|55=AVT|155=USD|10=129|
8=FIX.4.2|9=105|35=8|34=412|49=BROKER|52=20210312-16:36:07.518|56=CLIENT|31=1.3634352684020996|32=80|54=1|55=HOX|155=USD|10=120|
8=FIX.4.2|9=89|35=8|34=413|49=BROKER|52=20210312-16:36:07.518|56=CLIENT|31=OB|32=87|54=2|55=ZOT|155=USD|10=086|
8=FIX.4.2|9=102|35=8|34=414|49=BROKER|52=20210312-16:36:07.518|56=CLIENT|31=1.14058256149292|32=5|54=2|55=JXA|155=USD|10=205|
8=FIX.4.2|9=106|35=8|34=415|49=BROKER|52=20210312-16:36:07.518|56=CLIENT|31=1.9948780536651611|32=51|54=2|55=HSVG|155=USD|10=205|
8=FIX.4.2|9=105|35=8|34=416|49=BROKER|52=20210312-16:36:07.518|56=CLIENT|31=1.7631709575653076|32=59|54=1|55=UOS|155=USD|10=145|
8=FIX.4.2|9=104|35=8|34=417|49=BROKER|52=20210312-16:36:07.518|56=CLIENT|31=1.559288501739502|32=30|54=2|55=HSB|155=USD|10=053|
8=FIX.4.2|9=105|35=8|34=418|49=BROKER|52=20210312-16:36:07.518|56=CLIENT|31=1.7438722848892212|32=31|54=1|55=UEH|155=USD|10=116|
8=FIX.4.2|9=105|35=8|34=419|49=BROKER|52=20210312-16:36:07.518|56=CLIENT|31=1.5108277797698975|32=71|54=2|55=SJF|155=USD|10=143|
8=FIX.4.2|9=104|35=8|34=420|49=BROKER|52=20210312-16:36:07.518|56=CLIENT|31=1.076104998588562|32=25|54=1|55=UXD|155=USD|10=079|
8=FIX.4.2|9=103|35=8|34=421|49=BROKER|52=20210312-16:36:07.518|56=CLIENT|31=1.7038993835449219|32=99|54=1|55=IST|254=1|10=212|
8=FIX.4.2|9=104|35=8|34=422|49=BROKER|52=20210312-16:36:07.518|56=CLIENT|31=1.361082673072815|32=40|54=2|55=DKN|155=USD|10=040|
8=FIX.4.2|9=105|35=8|34=423|49=BROKER|52=20210312-16:36:07.518|56=CLIENT|31=1.8677899837493896|32=66|54=2|55=TJM|155=USD|10=164|
8=FIX.4.2|9=105|35=8|34=424|49=BROKER|52=20210312-16:36:07.518|56=CLIENT|31=1.2645514011383057|32=24|54=1|55=DJJ|155=USD|10=083|
8=FIX.4.2|9=105|35=8|34=425|49=BROKER|52=20210312-16:36:07.518|56=CLIENT|31=1.199847936630249|32=-80|54=2|55=RAJ|155=USD|10=114|
8=FIX.4.2|9=103|35=8|34=426|49=BROKER|52=20210312-16:36:07.518|56=CLIENT|31=1.420809030532837|32=75|54=2|55=UJHY|254=1|10=214|
8=FIX.4.2|9=103|35=8|34=427|49=BROKER|52=20210312-16:36:07.518|56=CLIENT|31=1.3468197584152222|32=90|54=2|55=WVK|254=1|10=203|
8=FIX.4.2|9=105|35=8|34=428|49=BROKER|52=20210312-16:36:07.518|56=CLIENT|31=1.2215913534164429|32=64|54=V|55==FI|155=USD|10=122|
8=FIX.4.2|9=105|35=8|34=429|49=BROKER|52=20210312-16:36:07.518|56=CLIENT|31=1.3457715511322021|32=31|54=P|55=VDH|155=USD|10=121|
8=FIX.4.2|9=105|35=8|34=430|49=BROKER|52=20210312-16:36:07.518|56=CLIENT|31=1.1728237867355347|32=68|54=1|55=YED|155=USD|10=121|
8=FIX.4.2|9=89|35=8|34=431|49=BROKER|52=20210312-16:36:07.518|56=CLIENT|31=OI|32=58|54=2|55=ZYF|155=USD|10=087|
8=FIX.4.2|9=104|35=8|34=432|49=BROKER|52=20210312-16:36:07.518|56=CLIENT|31=1.081767201423645|32=76|54=2|55=PQW|155=USD|10=074|
8=FIX.4.2|9=85|35=8|34=433|49=BROKER|52=20210312-16:36:07.518|56=CLIENT|31=1.1264002323150635|32=37|10=005|
8=FIX.4.2|9=105|35=8|34=434|49=BROKER|52=20210312-16:36:07.518|56=CLIENT|31=1.7905941009521484|32=61|54=2|55=RVD|155=USD|10=119|
8=FIX.4.2|9=104|35=8|34=435|49=BROKER|52=20210312-16:36:07.518|56=CLIENT|31=1.811841368675232|32=84|54=2|55=XKQ|155=USD|10=081|
8=FIX.4.2|9=104|35=8|34=436|49=BROKER|52=20210312-16:36:07.518|56=CLIENT|31=1.764208436012268|32=40|54=2|55=TNM|155=USD|10=063|
8=FIX.4.2|9=104|35=8|34=437|49=BROKER|52=20210312-16:36:07.518|56=CLIENT|31=1.8115909099578857|32=9|54=2|55=YOR|155=USD|10=112|
8=FIX.4.2|9=105|35=8|34=438|49=BROKER|52=20210312-16:36:07.518|56=CLIENT|31=1.7743571996688843|32=30|54=2|55=SID|155=USD|10=134|
8=FIX.4.2|9=105|35=8|34=439|49=BROKER|52=20210312-16:36:07.518|56=CLIENT|31=1.4639219045639038|32=80|54=2|55=QGB|155=USD|10=111|
8=FIX.4.2|9=103|35=8|34=440|49=BROKER|52=20210312-16:36:07.518|56=CLIENT|31=1.013236165046692|32=6|54=1|55=TCO|155=USD|10=252|
8=FIX.4.2|9=105|35=8|34=441|49=BROKER|52=20210312-16:36:07.518|56=CLIENT|31=1.4614495038986206|32=82|54=2|55=GFP|155=USD|10=112|
8=FIX.4.2|9=85|35=8|34=442|49=BROKER|52=20210312-16:36:07.518|56=CLIENT|31=1.5857775211334229|32=48|10=035|
8=FIX.4.2|9=105|35=8|34=443|49=BROKER|52=20210312-16:36:07.518|56=CLIENT|31=1.5225673913955688|32=41|54=2|55=UJE|155=USD|10=125|
8=FIX.4.2|9=104|35=8|34=444|49=BROKER|52=20210312-16:36:07.518|56=CLIENT|31=1.2427340745925903|32=4|54=2|55=MJJ|155=USD|10=055|
8=FIX.4.2|9=105|35=8|34=445|49=BROKER|52=20210312-16:36:07.518|56=CLIENT|31=1.9949061870574951|32=98|54=2|55=NJJ|155=USD|10=137|
8=FIX.4.2|9=104|35=8|34=446|49=BROKER|52=20210312-16:36:07.518|56=CLIENT|31=1.775943398475647|32=98|54=F|55=KGZ|155=USD|10=123|
8=FIX.4.2|9=104|35=8|34=447|49=BROKER|52=20210312-16:36:07.518|56=CLIENT|31=1.986343264579773|32=37|54=2|55=MER|155=USD|10=084|
8=FIX.4.2|9=104|35=8|34=448|49=BROKER|52=20210312-16:36:07.518|56=CLIENT|31=1.534097671508789|32=58|54=2|55=XKK|155=USD|10=094|
8=FIX.4.2|9=105|35=8|34=449|49=BROKER|52=20210312-16:36:07.518|56=CLIENT|31=1.0952856540679932|32=34|54=2|55=CXA|155=USD|10=121|
8=FIX.4.2|9=102|35=8|34=450|49=BROKER|52=20210312-16:36:07.518|56=CLIENT|31=1.0905650854110718|32=8|54=2|55=ODE|254=1|10=108|
8=FIX.4.2|9=89|35=8|34=451|49=BROKER|52=20210312-16:36:07.518|56=CLIENT|31=TU|32=82|54=2|55=EZQ|155=USD|10=094|
8=FIX.4.2|9=102|35=8|34=452|49=BROKER|52=20210312-16:36:07.518|56=CLIENT|31=1.420667290687561|32=97|54=1|55=AFP|254=1|10=125|
8=FIX.4.2|9=105|35=8|34=453|49=BROKER|52=20210312-16:36:07.518|56=CLIENT|31=1.8663229942321777|32=83|54=2|55=CUG|155=USD|10=121|
8=FIX.4.2|9=113|35=8|34=454|49=BROKER|52=20210312-16:36:07.518|56=CLIENT|21=COMM=2|31=1.8450889587402344|32=83|54=2|55=ACZ|254=1|10=250|
8=FIX.4.2|9=105|35=8|34=455|49=BROKER|52=20210312-16:36:07.518|56=CLIENT|31=1.0947097539901733|32=64|54=2|55=SWQ|155=USD|10=148|
8=FIX.4.2|9=106|35=8|34=456|49=BROKER|52=20210312-16:36:07.518|56=CLIENT|31=1.7812159061431885|32=90|54=2|55=QLIT|155=USD|10=205|
8=FIX.4.2|9=105|35=8|34=457|49=BROKER|52=20210312-16:36:07.518|56=CLIENT|31=1.9517953395843506|32=42|54=1|55=QGB|155=USD|10=118|
8=FIX.4.2|9=85|35=8|34=458|49=BROKER|52=20210312-16:36:07.518|56=CLIENT|31=1.0604963302612305|32=24|10=015|
8=FIX.4.2|9=104|35=8|34=459|49=BROKER|52=20210312-16:36:07.518|56=CLIENT|31=1.4001588821411133|32=2|54=2|55=ZOV|155=USD|10=073|
8=FIX.4.2|9=105|35=8|34=460|49=BROKER|52=20210312-16:36:07.518|56=CLIENT|31=1.1491032838821411|32=74|54=2|55=AYO|155=USD|10=107|
8=FIX.4.2|9=103|35=8|34=461|49=BROKER|52=20210312-16:36:07.518|56=CLIENT|31=1.6079373359680176|32=85|54=1|55=NJJ|254=1|10=193|
8=FIX.4.2|9=104|35=8|34=462|49=BROKER|52=20210312-16:36:07.518|56=CLIENT|31=1.044561505317688|32=21|54=2|55=SYM|155=USD|10=075|
8=FIX.4.2|9=105|35=8|34=463|49=BROKER|52=20210312-16:36:07.518|56=CLIENT|31=1.8044029474258423|32=35|54=2|55=STF|155=USD|10=121|
8=FIX.4.2|9=105|35=8|34=464|49=BROKER|52=20210312-16:36:07.518|56=CLIENT|31=1.3218307495117188|32=83|54=2|55==KN|155=USD|10=104|
8=FIX.4.2|9=84|35=8|34=465|49=BROKER|52=20210312-16:36:07.518|56=CLIENT|31=1.0341488122940063|32=7|10=226|
8=FIX.4.2|9=105|35=8|34=466|49=BROKER|52=20210312-16:36:07.518|56=CLIENT|31=1.5209746360778809|32=91|54=2|55=NSF|155=USD|10=135|
8=FIX.4.2|9=105|35=8|34=467|49=BROKER|52=20210312-16:36:07.518|56=CLIENT|31=1.2585432529449463|32=76|54=2|55=HGI|155=USD|10=118|
8=FIX.4.2|9=103|35=8|34=468|49=BROKER|52=20210312-16:36:07.518|56=CLIENT|31=1.3947800397872925|32=88|54=2|55=CUG|254=1|10=204|
8=FIX.4.2|9=105|35=8|34=469|49=BROKER|52=20210312-16:36:07.518|56=CLIENT|31=1.7490918636322021|32=83|54=2|55=VDH|155=USD|10=116|
8=FIX.4.2|9=105|35=8|34=470|49=BROKER|52=20210312-16:36:07.518|56=CLIENT|31=1.2886345386505127|32=IT|54=2|55=ATD|155=USD|10=159|
8=FIX.4.2|9=103|35=8|34=471|49=BROKER|52=20210312-16:36:07.518|56=CLIENT|31=1.80885648727417|32=63|54=2|55=NJJ|155=USD|10=021|
8=FIX.4.2|9=105|35=8|34=472|49=BROKER|52=20210312-16:36:07.518|56=CLIENT|31=1.7267088890075684|32=61|54=2|55=VWB|155=USD|10=141|
8=FIX.4.2|9=105|35=8|34=473|49=BROKER|52=20210312-16:36:07.518|56=CLIENT|31=1.5496176481246948|32=91|54=1|55=CUG|155=USD|10=127|
8=FIX.4.2|9=89|35=8|34=474|49=BROKER|52=20210312-16:36:07.518|56=CLIENT|31=FM|32=40|54=2|55=UZS|155=USD|10=089|
8=FIX.4.2|9=105|35=8|34=475|49=BROKER|52=20210312-16:36:07.518|56=CLIENT|31=1.6314880847930908|32=42|54=G|55=VDH|155=USD|10=144|
8=FIX.4.2|9=105|35=8|34=476|49=BROKER|52=20210312-16:36:07.518|56=CLIENT|31=1.3947978019714355|32=81|54=2|55=EBY|155=USD|10=129|
8=FIX.4.2|9=105|35=8|34=477|49=BROKER|52=20210312-16:36:07.518|56=CLIENT|31=1.2768135070800781|32=27|54=2|55=TNM|155=USD|10=126|
8=FIX.4.2|9=105|35=8|34=478|49=BROKER|52=20210312-16:36:07.518|56=CLIENT|31=1.0883558988571167|32=49|54=2|55=FZV|155=USD|10=164|
8=FIX.4.2|9=103|35=8|34=479|49=BROKER|52=20210312-16:36:07.518|56=CLIENT|31=1.88092041015625|32=90|54=2|55==FI|155=USD|10=239|
8=FIX.4.2|9=105|35=8|34=480|49=BROKER|52=20210312-16:36:07.518|56=CLIENT|31=1.4751418828964233|32=50|54=2|55=GXQ|155=USD|10=129|
8=FIX.4.2|9=103|35=8|34=481|49=BROKER|52=20210312-16:36:07.518|56=CLIENT|31=1.2181538343429565|32=74|54=2|55==DS|254=1|10=169|
8=FIX.4.2|9=89|35=8|34=482|49=BROKER|52=20210312-16:36:07.518|56=CLIENT|31=MH|32=85|54=1|55=TYN|155=USD|10=091|
8=FIX.4.2|9=105|35=8|34=483|49=BROKER|52=20210312-16:36:07.518|56=CLIENT|31=1.0835553407669067|32=60|54=2|55=EJH|155=USD|10=107|
8=FIX.4.2|9=105|35=8|34=484|49=BROKER|52=20210312-16:36:07.518|56=CLIENT|31=1.5872106552124023|32=60|54=2|55=CWK|155=USD|10=101|
8=FIX.4.2|9=105|35=8|34=485|49=BROKER|52=20210312-16:36:07.518|56=CLIENT|31=1.7002290487289429|32=18|54=1|55==CZ|155=USD|10=113|
8=FIX.4.2|9=89|35=8|34=486|49=BROKER|52=20210312-16:36:07.518|56=CLIENT|31=PV|32=95|54=2|55=OVG|155=USD|10=099|
8=FIX.4.2|9=105|35=8|34=487|49=BROKER|52=20210312-16:36:07.518|56=CLIENT|31=1.5470210313796997|32=89|54=2|55==VT|155=USD|10=137|
8=FIX.4.2|9=105|35=8|34=488|49=BROKER|52=20210312-16:36:07.518|56=CLIENT|31=1.0278421640396118|32=90|54=2|55=ERW|155=USD|10=126|
8=FIX.4.2|9=84|35=8|34=489|49=BROKER|52=20210312-16:36:07.518|56=CLIENT|31=1.679181694984436|32=68|10=013|
8=FIX.4.2|9=105|35=8|34=490|49=BROKER|52=20210312-16:36:07.518|56=CLIENT|31=1.8997348546981812|32=21|54=2|55=S=F|155=USD|10=119|
8=FIX.4.2|9=105|35=8|34=491|49=BROKER|52=20210312-16:36:07.518|56=CLIENT|31=1.6081783771514893|32=58|54=Z|55=SLE|155=USD|10=170|
8=FIX.4.2|9=104|35=8|34=492|49=BROKER|52=20210312-16:36:07.518|56=CLIENT|31=1.623503565788269|32=59|54=2|55=YEV|155=USD|10=096|
8=FIX.4.2|9=105|35=8|34=493|49=BROKER|52=20210312-16:36:07.518|56=CLIENT|31=1.8385759592056274|32=18|54=2|55=QNJ|155=USD|10=140|
8=FIX.4.2|9=104|35=8|34=494|49=BROKER|52=20210312-16:36:07.518|56=CLIENT|31=1.785489797592163|32=96|54=1|55==DS|155=USD|10=081|
8=FIX.4.2|9=102|35=8|34=495|49=BROKER|52=20210312-16:36:07.518|56=CLIENT|31=1.934730052947998|32=21|54=2|55=JPM|254=1|10=146|
8=FIX.4.2|9=102|35=8|34=496|49=BROKER|52=20210312-16:36:07.518|56=CLIENT|31=1.3373198509216309|32=96|54=1|55=|155=USD|10=152|
8=FIX.4.2|9=88|35=8|34=497|49=BROKER|52=20210312-16:36:07.518|56=CLIENT|31=0|32=44|54=2|55=BGY|155=USD|10=222|
8=FIX.4.2|9=102|35=8|34=498|49=BROKER|52=20210312-16:36:07.518|56=CLIENT|31=1.5676038265228271|32=8|54=2|55=A=Z|254=1|10=130|
8=FIX.4.2|9=105|35=8|34=499|49=BROKER|52=20210312-16:36:07.518|56=CLIENT|31=1.0094412565231323|32=80|54=H|55=FVC|155=USD|10=122|
8=FIX.4.2|9=105|35=8|34=500|49=BROKER|52=20210312-16:36:07.518|56=CLIENT|31=1.2250926494598389|32=FZ|54=2|55=JWQ|155=USD|10=193|
8=FIX.4.2|9=90|35=8|34=501|49=BROKER|52=20210312-16:36:07.518|56=CLIENT|31=HH|32=75|54=2|55=DWWT|155=USD|10=145|
8=FIX.4.2|9=106|35=8|34=502|49=BROKER|52=20210312-16:36:07.518|56=CLIENT|31=1.8865330219268799|32=86|54=2|55=MSLT|155=USD|10=225|
8=FIX.4.2|9=105|35=8|34=503|49=BROKER|52=20210312-16:36:07.518|56=CLIENT|31=1.3381173610687256|32=96|54=K|55=LCZ|155=USD|10=145|
8=FIX.4.2|9=103|35=8|34=504|49=BROKER|52=20210312-16:36:07.518|56=CLIENT|31=1.5684813261032104|32=32|54=2|55=OCZ|254=1|10=168|
8=FIX.4.2|9=105|35=8|34=505|49=BROKER|52=20210312-16:36:07.518|56=CLIENT|31=1.3580151796340942|32=97|54=2|55=OVF|155=USD|10=125|
8=FIX.4.2|9=105|35=8|34=506|49=BROKER|52=20210312-16:36:07.518|56=CLIENT|31=1.4610631465911865|32=84|54=2|55=EFF|155=USD|10=095|
8=FIX.4.2|9=84|35=8|34=507|49=BROKER|52=20210312-16:36:07.518|56=CLIENT|31=1.900719404220581|32=43|10=220|
8=FIX.4.2|9=104|35=8|34=508|49=BROKER|52=20210312-16:36:07.518|56=CLIENT|31=1.552077054977417|32=18|54=2|55=ZLB|155=USD|10=072|
8=FIX.4.2|9=105|35=8|34=509|49=BROKER|52=20210312-16:36:07.518|56=CLIENT|31=1.1361091136932373|32=98|54=1|55=PZL|155=USD|10=131|
8=FIX.4.2|9=105|35=8|34=510|49=BROKER|52=20210312-16:36:07.518|56=CLIENT|31=1.0240142345428467|32=36|54=2|55=TPO|155=USD|10=111|
8=FIX.4.2|9=101|35=8|34=511|49=BROKER|52=20210312-16:36:07.518|56=CLIENT|31=1.536224603652954|32=90|54=2|55=|155=USD|10=079|
8=FIX.4.2|9=106|35=8|34=512|49=BROKER|52=20210312-16:36:07.518|56=CLIENT|31=1.2688381671905518|32=78|54=2|55=YFVC|155=USD|10=211|
8=FIX.4.2|9=105|35=8|34=513|49=BROKER|52=20210312-16:36:07.518|56=CLIENT|31=1.3266876935958862|32=51|54=2|55=GFP|155=USD|10=126|
8=FIX.4.2|9=105|35=8|34=514|49=BROKER|52=20210312-16:36:07.518|56=CLIENT|31=1.0425361394882202|32=14|54=1|55=NDR|155=USD|10=098|
8=FIX.4.2|9=85|35=8|34=515|49=BROKER|52=20210312-16:36:07.518|56=CLIENT|31=1.9656786918640137|32=66|10=051|
8=FIX.4.2|9=106|35=8|34=516|49=BROKER|52=20210312-16:36:07.518|56=CLIENT|31=1.1222854852676392|32=-95|54=2|55=ZHJ|155=USD|10=177|
8=FIX.4.2|9=84|35=8|34=517|49=BROKER|52=20210312-16:36:07.518|56=CLIENT|31=1.369631052017212|32=12|10=213|
8=FIX.4.2|9=105|35=8|34=518|49=BROKER|52=20210312-16:36:07.518|56=CLIENT|31=1.023138165473938|32=100|54=2|55=JHY|155=USD|10=110|
8=FIX.4.2|9=104|35=8|34=519|49=BROKER|52=20210312-16:36:07.518|56=CLIENT|31=1.477564811706543|32=18|54=2|55=YXT|155=USD|10=101|
8=FIX.4.2|9=85|35=8|34=520|49=BROKER|52=20210312-16:36:07.518|56=CLIENT|31=1.2783125638961792|32=14|10=033|
8=FIX.4.2|9=105|35=8|34=521|49=BROKER|52=20210312-16:36:07.518|56=CLIENT|31=1.3711292743682861|32=79|54=2|55=QTX|155=USD|10=144|
8=FIX.4.2|9=103|35=8|34=522|49=BROKER|52=20210312-16:36:07.518|56=CLIENT|31=1.8432934284210205|32=74|54=1|55=QCN|254=1|10=166|
8=FIX.4.2|9=103|35=8|34=523|49=BROKER|52=20210312-16:36:07.518|56=CLIENT|31=1.0707619190216064|32=39|54=2|55=UAI|254=1|10=168|
8=FIX.4.2|9=85|35=8|34=524|49=BROKER|52=20210312-16:36:07.518|56=CLIENT|31=1.0287072658538818|32=59|10=045|
8=FIX.4.2|9=105|35=8|34=525|49=BROKER|52=20210312-16:36:07.518|56=CLIENT|31=1.1508054733276367|32=40|54=2|55=XYE|155=USD|10=126|
8=FIX.4.2|9=105|35=8|34=526|49=BROKER|52=20210312-16:36:07.518|56=CLIENT|31=1.8503448963165283|32=19|54=2|55=TEM|155=USD|10=125|
8=FIX.4.2|9=103|35=8|34=527|49=BROKER|52=20210312-16:36:07.518|56=CLIENT|31=1.8308789730072021|32=67|54=2|55=TAF|254=1|10=175|
8=FIX.4.2|9=85|35=8|34=528|49=BROKER|52=20210312-16:36:07.518|56=CLIENT|31=1.2230744361877441|32=21|10=023|
8=FIX.4.2|9=106|35=8|34=529|49=BROKER|52=20210312-16:36:07.518|56=CLIENT|31=1.1524384021759033|32=66|54=2|55=DCWV|155=USD|10=191|
8=FIX.4.2|9=113|35=8|34=530|49=BROKER|52=20210312-16:36:07.518|56=CLIENT|21=COMM=2|31=1.1425797939300537|32=68|54=2|55=MVH|254=1|10=000|
8=FIX.4.2|9=89|35=8|34=531|49=BROKER|52=20210312-16:36:07.518|56=CLIENT|31=BY|32=84|54=2|55=ODE|155=USD|10=057|
8=FIX.4.2|9=105|35=8|34=532|49=BROKER|52=20210312-16:36:07.518|56=CLIENT|31=1.9183709621429443|32=ZW|54=2|55=EQK|155=USD|10=185|
8=FIX.4.2|9=83|35=8|34=533|49=BROKER|52=20210312-16:36:07.518|56=CLIENT|31=1.243208646774292|32=1|10=178|
8=FIX.4.2|9=103|35=8|34=534|49=BROKER|52=20210312-16:36:07.518|56=CLIENT|31=1.3476959466934204|32=96|54=M|55=ARK|254=1|10=221|
8=FIX.4.2|9=105|35=8|34=535|49=BROKER|52=20210312-16:36:07.518|56=CLIENT|31=1.4230549335479736|32=53|54=2|55=QRT|155=USD|10=139|
8=FIX.4.2|9=105|35=8|34=536|49=BROKER|52=20210312-16:36:07.518|56=CLIENT|31=1.2495149374008179|32=78|54=2|55=WUE|155=USD|10=140|
8=FIX.4.2|9=84|35=8|34=537|49=BROKER|52=20210312-16:36:07.519|56=CLIENT|31=1.1348962783813477|32=0|10=246|
8=FIX.4.2|9=105|35=8|34=538|49=BROKER|52=20210312-16:36:07.519|56=CLIENT|31=1.0551800727844238|32=WC|54=2|55=YZH|155=USD|10=187|
8=FIX.4.2|9=104|35=8|34=539|49=BROKER|52=20210312-16:36:07.519|56=CLIENT|31=1.109283447265625|32=87|54=2|55=SLT|155=USD|10=088|
8=FIX.4.2|9=104|35=8|34=540|49=BROKER|52=20210312-16:36:07.519|56=CLIENT|31=1.418043613433838|32=58|54=2|55==FI|155=USD|10=034|
8=FIX.4.2|9=104|35=8|34=541|49=BROKER|52=20210312-16:36:07.519|56=CLIENT|31=1.0061593055725098|32=0|54=1|55=WSR|155=USD|10=075|
8=FIX.4.2|9=104|35=8|34=542|49=BROKER|52=20210312-16:36:07.519|56=CLIENT|31=1.079465389251709|32=44|54=2|55=GVB|155=USD|10=066|
8=FIX.4.2|9=102|35=8|34=543|49=BROKER|52=20210312-16:36:07.519|56=CLIENT|31=1.0808354616165161|32=95|54=2|55=|155=USD|10=138|
8=FIX.4.2|9=89|35=8|34=544|49=BROKER|52=20210312-16:36:07.519|56=CLIENT|31=FZ|32=75|54=2|55=TAF|155=USD|10=070|
8=FIX.4.2|9=105|35=8|34=545|49=BROKER|52=20210312-16:36:07.519|56=CLIENT|31=1.7948012351989746|32=55|54=2|55=QCN|155=USD|10=131|
8=FIX.4.2|9=104|35=8|34=546|49=BROKER|52=20210312-16:36:07.519|56=CLIENT|31=1.263364553451538|32=64|54=2|55=EBY|155=USD|10=061|
8=FIX.4.2|9=105|35=8|34=547|49=BROKER|52=20210312-16:36:07.519|56=CLIENT|31=1.4373400211334229|32=69|54=2|55=QZM|155=USD|10=125|
8=FIX.4.2|9=106|35=8|34=548|49=BROKER|52=20210312-16:36:07.519|56=CLIENT|31=1.7987167835235596|32=-51|54=2|55=TJM|155=USD|10=193|
8=FIX.4.2|9=104|35=8|34=549|49=BROKER|52=20210312-16:36:07.519|56=CLIENT|31=1.5341980457305908|32=2|54=G|55=GMS|155=USD|10=092|
8=FIX.4.2|9=105|35=8|34=550|49=BROKER|52=20210312-16:36:07.519|56=CLIENT|31=1.2491235733032227|32=27|54=2|55=SWQ|155=USD|10=123|
8=FIX.4.2|9=105|35=8|34=551|49=BROKER|52=20210312-16:36:07.519|56=CLIENT|31=1.0449740886688232|32=94|54=2|55=DJJ|155=USD|10=117|
8=FIX.4.2|9=105|35=8|34=552|49=BROKER|52=20210312-16:36:07.519|56=CLIENT|31=1.7905023097991943|32=3|54=2|55=VCBX|155=USD|10=149|
8=FIX.4.2|9=104|35=8|34=553|49=BROKER|52=20210312-16:36:07.519|56=CLIENT|31=1.356467604637146|32=52|54=2|55=UOT|155=USD|10=085|
8=FIX.4.2|9=105|35=8|34=554|49=BROKER|52=20210312-16:36:07.519|56=CLIENT|31=1.8081145286560059|32=JZ|54=1|55=ACZ|155=USD|10=169|
8=FIX.4.2|9=105|35=8|34=555|49=BROKER|52=20210312-16:36:07.519|56=CLIENT|31=1.722437858581543|32=100|54=2|55=FZV|155=USD|10=132|
8=FIX.4.2|9=105|35=8|34=556|49=BROKER|52=20210312-16:36:07.519|56=CLIENT|31=1.9106204509735107|32=70|54=1|55=GMS|155=USD|10=110|
8=FIX.4.2|9=85|35=8|34=557|49=BROKER|52=20210312-16:36:07.519|56=CLIENT|31=1.4852112531661987|32=82|10=039|
8=FIX.4.2|9=105|35=8|34=558|49=BROKER|52=20210312-16:36:07.519|56=CLIENT|31=1.3796284198760986|32=-8|54=1|55=CXA|155=USD|10=133|
8=FIX.4.2|9=102|35=8|34=559|49=BROKER|52=20210312-16:36:07.519|56=CLIENT|31=1.233811378479004|32=62|54=2|55=XZM|254=1|10=158|
8=FIX.4.2|9=104|35=8|34=560|49=BROKER|52=20210312-16:36:07.519|56=CLIENT|31=1.6272395849227905|32=5|54=1|55=MAP|155=USD|10=066|
8=FIX.4.2|9=104|35=8|34=561|49=BROKER|52=20210312-16:36:07.519|56=CLIENT|31=1.5468333959579468|32=8|54=2|55=TPO|155=USD|10=106|
8=FIX.4.2|9=105|35=8|34=562|49=BROKER|52=20210312-16:36:07.519|56=CLIENT|31=1.9901351928710938|32=90|54=2|55=DKN|155=USD|10=116|
8=FIX.4.2|9=102|35=8|34=563|49=BROKER|52=20210312-16:36:07.519|56=CLIENT|31=1.1852909326553345|32=22|54=2|55=|155=USD|10=139|
8=FIX.4.2|9=105|35=8|34=564|49=BROKER|52=20210312-16:36:07.519|56=CLIENT|31=1.1226669549942017|32=91|54=2|55=IST|155=USD|10=136|
8=FIX.4.2|9=105|35=8|34=565|49=BROKER|52=20210312-16:36:07.519|56=CLIENT|31=1.7675774097442627|32=98|54=1|55=NWC|155=USD|10=146|
8=FIX.4.2|9=88|35=8|34=566|49=BROKER|52=20210312-16:36:07.519|56=CLIENT|31=0|32=29|54=2|55=MLF|155=USD|10=220|
8=FIX.4.2|9=105|35=8|34=567|49=BROKER|52=20210312-16:36:07.519|56=CLIENT|31=1.7815037965774536|32=33|54=2|55=UXD|155=USD|10=146|
8=FIX.4.2|9=105|35=8|34=568|49=BROKER|52=20210312-16:36:07.519|56=CLIENT|31=1.4583252668380737|32=83|54=2|55=NWV|155=USD|10=156|
8=FIX.4.2|9=106|35=8|34=569|49=BROKER|52=20210312-16:36:07.519|56=CLIENT|31=1.7941045761108398|32=86|54=2|55=GFFB|155=USD|10=183|
8=FIX.4.2|9=85|35=8|34=570|49=BROKER|52=20210312-16:36:07.519|56=CLIENT|31=1.4448599815368652|32=41|10=047|
8=FIX.4.2|9=105|35=8|34=571|49=BROKER|52=20210312-16:36:07.519|56=CLIENT|31=1.4016945362091064|32=67|54=2|55=HUH|155=USD|10=113|
8=FIX.4.2|9=106|35=8|34=572|49=BROKER|52=20210312-16:36:07.519|56=CLIENT|31=1.7662276029586792|32=-14|54=2|55=JUU|155=USD|10=191|
8=FIX.4.2|9=105|35=8|34=573|49=BROKER|52=20210312-16:36:07.519|56=CLIENT|31=1.0412306785583496|32=71|54=G|55=BEY|155=USD|10=137|
8=FIX.4.2|9=106|35=8|34=574|49=BROKER|52=20210312-16:36:07.519|56=CLIENT|31=1.4156986474990845|32=79|54=2|55=OSWQ|155=USD|10=250|
8=FIX.4.2|9=103|35=8|34=575|49=BROKER|52=20210312-16:36:07.519|56=CLIENT|31=1.5222023725509644|32=54|54=2|55=ZSN|254=1|10=200|
8=FIX.4.2|9=84|35=8|34=576|49=BROKER|52=20210312-16:36:07.519|56=CLIENT|31=1.643263816833496|32=85|10=253|
8=FIX.4.2|9=105|35=8|34=577|49=BROKER|52=20210312-16:36:07.519|56=CLIENT|31=1.4802123308181763|32=90|54=2|55=KMX|155=USD|10=123|
8=FIX.4.2|9=104|35=8|34=578|49=BROKER|52=20210312-16:36:07.519|56=CLIENT|31=1.7568268775939941|32=0|54=2|55=VMK|155=USD|10=103|
8=FIX.4.2|9=104|35=8|34=579|49=BROKER|52=20210312-16:36:07.519|56=CLIENT|31=1.195907711982727|32=91|54=2|55=WSR|155=USD|10=107|
8=FIX.4.2|9=105|35=8|34=580|49=BROKER|52=20210312-16:36:07.519|56=CLIENT|31=1.5362448692321777|32=-4|54=2|55=GNA|155=USD|10=102|
8=FIX.4.2|9=104|35=8|34=581|49=BROKER|52=20210312-16:36:07.519|56=CLIENT|31=1.301421880722046|32=32|54=2|55==FI|155=USD|10=020|
8=FIX.4.2|9=105|35=8|34=582|49=BROKER|52=20210312-16:36:07.519|56=CLIENT|31=1.3847191333770752|32=61|54=2|55=SWQ|155=USD|10=141|
8=FIX.4.2|9=104|35=8|34=583|49=BROKER|52=20210312-16:36:07.519|56=CLIENT|31=1.036845088005066|32=44|54=1|55=UGZ|155=USD|10=077|
8=FIX.4.2|9=103|35=8|34=584|49=BROKER|52=20210312-16:36:07.519|56=CLIENT|31=1.740752935409546|32=5|54=2|55=WYN|155=USD|10=046|
8=FIX.4.2|9=105|35=8|34=585|49=BROKER|52=20210312-16:36:07.519|56=CLIENT|31=1.1420191526412964|32=80|54=2|55==DS|155=USD|10=093|
8=FIX.4.2|9=105|35=8|34=586|49=BROKER|52=20210312-16:36:07.519|56=CLIENT|31=1.7275662422180176|32=86|54=2|55=BAI|155=USD|10=101|
8=FIX.4.2|9=105|35=8|34=587|49=BROKER|52=20210312-16:36:07.519|56=CLIENT|31=1.0939679145812988|32=22|54=2|55=SJF|155=USD|10=138|
8=FIX.4.2|9=105|35=8|34=588|49=BROKER|52=20210312-16:36:07.519|56=CLIENT|31=1.5205243825912476|32=21|54=2|55=AHZ|155=USD|10=114|
8=FIX.4.2|9=105|35=8|34=589|49=BROKER|52=20210312-16:36:07.519|56=CLIENT|31=1.3977634906768799|32=63|54=1|55=NJJ|155=USD|10=154|
8=FIX.4.2|9=103|35=8|34=590|49=BROKER|52=20210312-16:36:07.519|56=CLIENT|31=1.608657956123352|32=1|54=2|55=RCS|155=USD|10=015|
8=FIX.4.2|9=86|35=8|34=591|49=BROKER|52=20210312-16:36:07.519|56=CLIENT|31=0|32=42|54=2|55==VT|254=1|10=032|
8=FIX.4.2|9=88|35=8|34=592|49=BROKER|52=20210312-16:36:07.519|56=CLIENT|31=0|32=21|54=1|55=GMS|155=USD|10=218|
8=FIX.4.2|9=105|35=8|34=593|49=BROKER|52=20210312-16:36:07.519|56=CLIENT|31=1.2436680793762207|32=99|54=2|55=RGB|155=USD|10=124|
8=FIX.4.2|9=104|35=8|34=594|49=BROKER|52=20210312-16:36:07.519|56=CLIENT|31=1.6464136838912964|32=6|54=2|55=BAI|155=USD|10=057|
8=FIX.4.2|9=105|35=8|34=595|49=BROKER|52=20210312-16:36:07.519|56=CLIENT|31=1.3436754941940308|32=14|54=2|55=GCM|155=USD|10=107|
8=FIX.4.2|9=105|35=8|34=596|49=BROKER|52=20210312-16:36:07.519|56=CLIENT|31=1.2542877197265625|32=26|54=2|55=YIN|155=USD|10=144|
8=FIX.4.2|9=105|35=8|34=597|49=BROKER|52=20210312-16:36:07.519|56=CLIENT|31=1.8376859426498413|32=44|54=1|55=LMY|155=USD|10=155|
8=FIX.4.2|9=69|35=8|34=598|49=BROKER|52=20210312-16:36:07.519|56=CLIENT|31=YC|32=73|10=038|
8=FIX.4.2|9=85|35=8|34=599|49=BROKER|52=20210312-16:36:07.519|56=CLIENT|31=1.7801127433776855|32=87|10=055|
8=FIX.4.2|9=105|35=8|34=600|49=BROKER|52=20210312-16:36:07.519|56=CLIENT|31=1.2266420125961304|32=9|54=2|55=FUEH|155=USD|10=114|
8=FIX.4.2|9=104|35=8|34=601|49=BROKER|52=20210312-16:36:07.519|56=CLIENT|31=1.1355849504470825|32=5|54=2|55=LBS|155=USD|10=056|
8=FIX.4.2|9=105|35=8|34=602|49=BROKER|52=20210312-16:36:07.519|56=CLIENT|31=1.9298229217529297|32=13|54=1|55=HOV|155=USD|10=131|
8=FIX.4.2|9=105|35=8|34=603|49=BROKER|52=20210312-16:36:07.519|56=CLIENT|31=1.5434316396713257|32=29|54=2|55=JUU|155=USD|10=131|
8=FIX.4.2|9=105|35=8|34=604|49=BROKER|52=20210312-16:36:07.519|56=CLIENT|31=1.1588226556777954|32=41|54=1|55=CWV|155=USD|10=139|
8=FIX.4.2|9=85|35=8|34=605|49=BROKER|52=20210312-16:36:07.519|56=CLIENT|31=1.6054670810699463|32=81|10=037|
8=FIX.4.2|9=106|35=8|34=606|49=BROKER|52=20210312-16:36:07.519|56=CLIENT|31=1.9797803163528442|32=90|54=2|55=DCWV|155=USD|10=206|
8=FIX.4.2|9=105|35=8|34=607|49=BROKER|52=20210312-16:36:07.519|56=CLIENT|31=1.7268365621566772|32=6|54=2|55=ABGY|155=USD|10=139|
8=FIX.4.2|9=105|35=8|34=608|49=BROKER|52=20210312-16:36:07.519|56=CLIENT|31=1.5096538066864014|32=63|54=2|55=QRT|155=USD|10=139|
8=FIX.4.2|9=105|35=8|34=609|49=BROKER|52=20210312-16:36:07.519|56=CLIENT|31=1.4436233043670654|32=13|54=I|55=A=Z|155=USD|10=116|
8=FIX.4.2|9=102|35=8|34=610|49=BROKER|52=20210312-16:36:07.519|56=CLIENT|31=1.5272400379180908|32=87|54=2|55=|155=USD|10=138|
8=FIX.4.2|9=107|35=8|34=611|49=BROKER|52=20210312-16:36:07.519|56=CLIENT|31=1.2947756052017212|32=-100|54=2|55=KSM|155=USD|10=197|
8=FIX.4.2|9=103|35=8|34=612|49=BROKER|52=20210312-16:36:07.519|56=CLIENT|31=1.65562105178833|32=42|54=2|55=MAO|155=USD|10=252|
8=FIX.4.2|9=106|35=8|34=613|49=BROKER|52=20210312-16:36:07.519|56=CLIENT|31=1.7567429542541504|32=30|54=2|55=FPJZ|155=USD|10=196|
8=FIX.4.2|9=84|35=8|34=614|49=BROKER|52=20210312-16:36:07.519|56=CLIENT|31=1.146691918373108|32=67|10=241|
8=FIX.4.2|9=105|35=8|34=615|49=BROKER|52=20210312-16:36:07.519|56=CLIENT|31=1.6404016017913818|32=86|54=1|55=RYW|155=USD|10=140|
8=FIX.4.2|9=103|35=8|34=616|49=BROKER|52=20210312-16:36:07.519|56=CLIENT|31=1.535247802734375|32=3|54=2|55==CZ|155=USD|10=255|
8=FIX.4.2|9=105|35=8|34=617|49=BROKER|52=20210312-16:36:07.519|56=CLIENT|31=1.0326179265975952|32=32|54=2|55=LCZ|155=USD|10=128|
8=FIX.4.2|9=105|35=8|34=618|49=BROKER|52=20210312-16:36:07.519|56=CLIENT|31=1.0070254802703857|32=12|54=1|55=XKK|155=USD|10=111|
8=FIX.4.2|9=106|35=8|34=619|49=BROKER|52=20210312-16:36:07.519|56=CLIENT|31=1.0106133222579956|32=YG|54=2|55=SAFP|155=USD|10=238|
8=FIX.4.2|9=105|35=8|34=620|49=BROKER|52=20210312-16:36:07.519|56=CLIENT|31=1.9843177795410156|32=52|54=2|55=TCO|155=USD|10=120|
8=FIX.4.2|9=102|35=8|34=621|49=BROKER|52=20210312-16:36:07.519|56=CLIENT|31=1.4576927423477173|32=8|54=2|55=KLD|254=1|10=130|
8=FIX.4.2|9=104|35=8|34=622|49=BROKER|52=20210312-16:36:07.519|56=CLIENT|31=1.590559720993042|32=92|54=2|55=ERW|155=USD|10=077|
8=FIX.4.2|9=105|35=8|34=623|49=BROKER|52=20210312-16:36:07.519|56=CLIENT|31=1.4762935638427734|32=80|54=1|55=ZJQ|155=USD|10=141|
8=FIX.4.2|9=105|35=8|34=624|49=BROKER|52=20210312-16:36:07.519|56=CLIENT|31=1.4901922941207886|32=56|54=2|55=BPB|155=USD|10=105|
8=FIX.4.2|9=84|35=8|34=625|49=BROKER|52=20210312-16:36:07.519|56=CLIENT|31=1.4416124820709229|32=9|10=233|
8=FIX.4.2|9=104|35=8|34=626|49=BROKER|52=20210312-16:36:07.519|56=CLIENT|31=1.183083415031433|32=18|54=2|55=JHY|155=USD|10=054|
8=FIX.4.2|9=105|35=8|34=627|49=BROKER|52=20210312-16:36:07.519|56=CLIENT|31=1.3208990097045898|32=69|54=2|55=EJV|155=USD|10=138|
8=FIX.4.2|9=104|35=8|34=628|49=BROKER|52=20210312-16:36:07.519|56=CLIENT|31=1.5562996864318848|32=7|54=1|55=DHI|155=USD|10=076|
8=FIX.4.2|9=105|35=8|34=629|49=BROKER|52=20210312-16:36:07.519|56=CLIENT|31=1.1830756664276123|32=14|54=2|55=SLE|155=USD|10=115|
8=FIX.4.2|9=88|35=8|34=630|49=BROKER|52=20210312-16:36:07.519|56=CLIENT|31=QD|32=6|54=2|55=MNE|155=USD|10=005|
8=FIX.4.2|9=104|35=8|34=631|49=BROKER|52=20210312-16:36:07.519|56=CLIENT|31=1.243622064590454|32=98|54=2|55=OCZ|155=USD|10=068|
8=FIX.4.2|9=103|35=8|34=632|49=BROKER|52=20210312-16:36:07.519|56=CLIENT|31=1.6468939781188965|32=20|54=2|55=MBT|254=1|10=203|
8=FIX.4.2|9=105|35=8|34=633|49=BROKER|52=20210312-16:36:07.519|56=CLIENT|31=1.8710074424743652|32=99|54=2|55=XCQ|155=USD|10=128|
8=FIX.4.2|9=105|35=8|34=634|49=BROKER|52=20210312-16:36:07.519|56=CLIENT|31=1.0943313837051392|32=23|54=2|55==KN|155=USD|10=091|
8=FIX.4.2|9=86|35=8|34=635|49=BROKER|52=20210312-16:36:07.519|56=CLIENT|31=1.4832525253295898|32=-53|10=091|
8=FIX.4.2|9=104|35=8|34=636|49=BROKER|52=20210312-16:36:07.519|56=CLIENT|31=1.836315631866455|32=YC|54=2|55=FZX|155=USD|10=142|
8=FIX.4.2|9=105|35=8|34=637|49=BROKER|52=20210312-16:36:07.519|56=CLIENT|31=1.1870638132095337|32=71|54=2|55=ONX|155=USD|10=133|
8=FIX.4.2|9=85|35=8|34=638|49=BROKER|52=20210312-16:36:07.519|56=CLIENT|31=1.094444751739502|32=-16|10=028|
8=FIX.4.2|9=106|35=8|34=639|49=BROKER|52=20210312-16:36:07.519|56=CLIENT|31=1.8564649820327759|32=-52|54=2|55=EJH|155=USD|10=169|
8=FIX.4.2|9=84|35=8|34=640|49=BROKER|52=20210312-16:36:07.519|56=CLIENT|31=1.749384880065918|32=10|10=241|
8=FIX.4.2|9=105|35=8|34=641|49=BROKER|52=20210312-16:36:07.519|56=CLIENT|31=1.9771695137023926|32=10|54=2|55=UEH|155=USD|10=113|
8=FIX.4.2|9=85|35=8|34=642|49=BROKER|52=20210312-16:36:07.519|56=CLIENT|31=1.3278722763061523|32=14|10=024|
8=FIX.4.2|9=103|35=8|34=643|49=BROKER|52=20210312-16:36:07.519|56=CLIENT|31=1.5064184665679932|32=75|54=2|55=AZW|254=1|10=213|
8=FIX.4.2|9=88|35=8|34=644|49=BROKER|52=20210312-16:36:07.519|56=CLIENT|31=0|32=60|54=2|55=HOV|155=USD|10=226|
8=FIX.4.2|9=105|35=8|34=645|49=BROKER|52=20210312-16:36:07.519|56=CLIENT|31=1.7046334743499756|32=42|54=2|55=QSN|155=USD|10=142|
8=FIX.4.2|9=105|35=8|34=646|49=BROKER|52=20210312-16:36:07.519|56=CLIENT|31=1.2319772243499756|32=75|54=2|55=RYW|155=USD|10=164|
8=FIX.4.2|9=104|35=8|34=647|49=BROKER|52=20210312-16:36:07.519|56=CLIENT|31=1.721914291381836|32=61|54=2|55=FFB|155=USD|10=044|
8=FIX.4.2|9=103|35=8|34=648|49=BROKER|52=20210312-16:36:07.519|56=CLIENT|31=1.0522234439849854|32=75|54=2|55==FI|254=1|10=171|
8=FIX.4.2|9=104|35=8|34=649|49=BROKER|52=20210312-16:36:07.519|56=CLIENT|31=1.170115351676941|32=26|54=2|55=DCE|155=USD|10=037|
8=FIX.4.2|9=105|35=8|34=650|49=BROKER|52=20210312-16:36:07.519|56=CLIENT|31=1.082140564918518|32=98|54=1|55=JIVA|155=USD|10=137|
8=FIX.4.2|9=105|35=8|34=651|49=BROKER|52=20210312-16:36:07.519|56=CLIENT|31=1.7375037670135498|32=64|54=1|55=OVG|155=USD|10=130|
8=FIX.4.2|9=105|35=8|34=652|49=BROKER|52=20210312-16:36:07.519|56=CLIENT|31=1.4550094604492188|32=13|54=2|55=PXP|155=USD|10=132|
8=FIX.4.2|9=104|35=8|34=653|49=BROKER|52=20210312-16:36:07.519|56=CLIENT|31=1.6473331451416016|32=1|54=2|55==FI|155=USD|10=023|
8=FIX.4.2|9=85|35=8|34=654|49=BROKER|52=20210312-16:36:07.519|56=CLIENT|31=1.8093839883804321|32=81|10=044|
8=FIX.4.2|9=85|35=8|34=655|49=BROKER|52=20210312-16:36:07.519|56=CLIENT|31=1.4942034482955933|32=70|10=040|
8=FIX.4.2|9=105|35=8|34=656|49=BROKER|52=20210312-16:36:07.519|56=CLIENT|31=1.2527859210968018|32=68|54=2|55=CFS|155=USD|10=122|
8=FIX.4.2|9=101|35=8|34=657|49=BROKER|52=20210312-16:36:07.519|56=CLIENT|31=1.71421217918396|32=31|54=2|55=OVF|254=1|10=085|
8=FIX.4.2|9=104|35=8|34=658|49=BROKER|52=20210312-16:36:07.519|56=CLIENT|31=1.506762981414795|32=84|54=1|55=CUA|155=USD|10=070|
8=FIX.4.2|9=105|35=8|34=659|49=BROKER|52=20210312-16:36:07.519|56=CLIENT|31=1.4455361366271973|32=15|54=1|55=SBF|155=USD|10=114|
8=FIX.4.2|9=105|35=8|34=660|49=BROKER|52=20210312-16:36:07.519|56=CLIENT|31=1.8377535343170166|32=40|54=2|55=CBX|155=USD|10=104|
8=FIX.4.2|9=105|35=8|34=661|49=BROKER|52=20210312-16:36:07.519|56=CLIENT|31=1.7053767442703247|32=86|54=2|55=OVF|155=USD|10=128|
8=FIX.4.2|9=105|35=8|34=662|49=BROKER|52=20210312-16:36:07.519|56=CLIENT|31=1.7754323482513428|32=18|54=2|55=GMS|155=USD|10=120|
8=FIX.4.2|9=102|35=8|34=663|49=BROKER|52=20210312-16:36:07.519|56=CLIENT|31=1.5650634765625|32=76|54=2|55==QJ|155=USD|10=211|
8=FIX.4.2|9=105|35=8|34=664|49=BROKER|52=20210312-16:36:07.519|56=CLIENT|31=1.6326898336410522|32=22|54=1|55=HOX|155=USD|10=124|
8=FIX.4.2|9=105|35=8|34=665|49=BROKER|52=20210312-16:36:07.519|56=CLIENT|31=1.3876957893371582|32=15|54=2|55=CWF|155=USD|10=136|
8=FIX.4.2|9=105|35=8|34=666|49=BROKER|52=20210312-16:36:07.520|56=CLIENT|31=1.4971528053283691|32=0|54=2|55=UVKU|155=USD|10=164|
8=FIX.4.2|9=85|35=8|34=667|49=BROKER|52=20210312-16:36:07.520|56=CLIENT|31=1.4551841020584106|32=83|10=019|
8=FIX.4.2|9=103|35=8|34=668|49=BROKER|52=20210312-16:36:07.520|56=CLIENT|31=1.2565584182739258|32=33|54=2|55=JUV|254=1|10=208|
8=FIX.4.2|9=106|35=8|34=669|49=BROKER|52=20210312-16:36:07.520|56=CLIENT|31=1.6529569625854492|32=66|54=2|55=UJHY|155=USD|10=231|
8=FIX.4.2|9=105|35=8|34=670|49=BROKER|52=20210312-16:36:07.520|56=CLIENT|31=1.3903069496154785|32=38|54=2|55=ACZ|155=USD|10=115|
8=FIX.4.2|9=105|35=8|34=671|49=BROKER|52=20210312-16:36:07.520|56=CLIENT|31=1.2595337629318237|32=12|54=2|55=IWC|155=USD|10=109|
8=FIX.4.2|9=90|35=8|34=672|49=BROKER|52=20210312-16:36:07.520|56=CLIENT|31=OU|32=88|54=2|55=YCFS|155=USD|10=154|
8=FIX.4.2|9=105|35=8|34=673|49=BROKER|52=20210312-16:36:07.520|56=CLIENT|31=1.9457974433898926|32=34|54=2|55=SYM|155=USD|10=159|
8=FIX.4.2|9=103|35=8|34=674|49=BROKER|52=20210312-16:36:07.520|56=CLIENT|31=1.1234444379806519|32=74|54=2|55=ZLP|254=1|10=201|
8=FIX.4.2|9=85|35=8|34=675|49=BROKER|52=20210312-16:36:07.520|56=CLIENT|31=1.1110354661941528|32=91|10=020|
8=FIX.4.2|9=104|35=8|34=676|49=BROKER|52=20210312-16:36:07.520|56=CLIENT|31=1.4623427391052246|32=9|54=2|55=ZOQ|155=USD|10=079|
8=FIX.4.2|9=104|35=8|34=677|49=BROKER|52=20210312-16:36:07.520|56=CLIENT|31=1.356034517288208|32=24|54=2|55=ACZ|155=USD|10=051|
8=FIX.4.2|9=113|35=8|34=678|49=BROKER|52=20210312-16:36:07.520|56=CLIENT|21=COMM=2|31=1.6633570194244385|32=50|54=2|55=OCZ|254=1|10=250|
8=FIX.4.2|9=105|35=8|34=679|49=BROKER|52=20210312-16:36:07.520|56=CLIENT|31=1.6771938800811768|32=15|54=2|55=MVH|155=USD|10=133|
8=FIX.4.2|9=105|35=8|34=680|49=BROKER|52=20210312-16:36:07.520|56=CLIENT|31=1.6292402744293213|32=41|54=2|55=UJE|155=USD|10=097|
8=FIX.4.2|9=83|35=8|34=681|49=BROKER|52=20210312-16:36:07.520|56=CLIENT|31=1.050333023071289|32=5|10=159|
8=FIX.4.2|9=103|35=8|34=682|49=BROKER|52=20210312-16:36:07.520|56=CLIENT|31=1.969614028930664|32=6|54=2|55=IFV|155=USD|10=016|
8=FIX.4.2|9=105|35=8|34=683|49=BROKER|52=20210312-16:36:07.520|56=CLIENT|31=1.7995038032531738|32=89|54=2|55=LUE|155=USD|10=127|
8=FIX.4.2|9=85|35=8|34=684|49=BROKER|52=20210312-16:36:07.520|56=CLIENT|31=1.6802382469177246|32=75|10=040|
8=FIX.4.2|9=105|35=8|34=685|49=BROKER|52=20210312-16:36:07.520|56=CLIENT|31=1.7020466327667236|32=27|54=2|55=BGY|155=USD|10=111|
8=FIX.4.2|9=104|35=8|34=686|49=BROKER|52=20210312-16:36:07.520|56=CLIENT|31=1.371636986732483|32=10|54=2|55=SBF|155=USD|10=057|
8=FIX.4.2|9=105|35=8|34=687|49=BROKER|52=20210312-16:36:07.520|56=CLIENT|31=1.3461377620697021|32=1|54=2|55=YFVC|155=USD|10=140|
8=FIX.4.2|9=105|35=8|34=688|49=BROKER|52=20210312-16:36:07.520|56=CLIENT|31=1.1415181159973145|32=62|54=2|55=IST|155=USD|10=125|
8=FIX.4.2|9=88|35=8|34=689|49=BROKER|52=20210312-16:36:07.520|56=CLIENT|31=0|32=26|54=1|55=HGI|155=USD|10=207|
8=FIX.4.2|9=85|35=8|34=690|49=BROKER|52=20210312-16:36:07.520|56=CLIENT|31=1.5537939071655273|32=93|10=039|
8=FIX.4.2|9=105|35=8|34=691|49=BROKER|52=20210312-16:36:07.520|56=CLIENT|31=1.8192002773284912|32=79|54=2|55=OXI|155=USD|10=127|
8=FIX.4.2|9=105|35=8|34=692|49=BROKER|52=20210312-16:36:07.520|56=CLIENT|31=1.9846775531768799|32=46|54=2|55=ZKA|155=USD|10=148|
8=FIX.4.2|9=105|35=8|34=693|49=BROKER|52=20210312-16:36:07.520|56=CLIENT|31=1.2525205612182617|32=79|54=2|55=MNE|155=USD|10=103|
8=FIX.4.2|9=102|35=8|34=694|49=BROKER|52=20210312-16:36:07.520|56=CLIENT|31=1.2241008281707764|32=21|54=2|55=|155=USD|10=124|
8=FIX.4.2|9=106|35=8|34=695|49=BROKER|52=20210312-16:36:07.520|56=CLIENT|31=1.7661793231964111|32=16|54=2|55=VOVG|155=USD|10=207|
8=FIX.4.2|9=104|35=8|34=696|49=BROKER|52=20210312-16:36:07.520|56=CLIENT|31=1.8415007591247559|32=6|54=2|55=RYW|155=USD|10=098|
8=FIX.4.2|9=105|35=8|34=697|49=BROKER|52=20210312-16:36:07.520|56=CLIENT|31=1.6615440845489502|32=2|54=2|55=UVKU|155=USD|10=168|
8=FIX.4.2|9=105|35=8|34=698|49=BROKER|52=20210312-16:36:07.520|56=CLIENT|31=1.0066475868225098|32=36|54=1|55=GVB|155=USD|10=120|
8=FIX.4.2|9=104|35=8|34=699|49=BROKER|52=20210312-16:36:07.520|56=CLIENT|31=1.968440294265747|32=51|54=2|55=FEG|155=USD|10=058|
8=FIX.4.2|9=105|35=8|34=700|49=BROKER|52=20210312-16:36:07.520|56=CLIENT|31=1.7888908386230469|32=98|54=2|55=RUC|155=USD|10=137|
8=FIX.4.2|9=105|35=8|34=701|49=BROKER|52=20210312-16:36:07.520|56=CLIENT|31=1.4729547500610352|32=78|54=2|55=UDT|155=USD|10=110|
8=FIX.4.2|9=85|35=8|34=702|49=BROKER|52=20210312-16:36:07.520|56=CLIENT|31=1.7387933731079102|32=53|10=022|
8=FIX.4.2|9=105|35=8|34=703|49=BROKER|52=20210312-16:36:07.520|56=CLIENT|31=1.1635806560516357|32=19|54=2|55=DOT|155=USD|10=108|
8=FIX.4.2|9=105|35=8|34=704|49=BROKER|52=20210312-16:36:07.520|56=CLIENT|31=1.2209715843200684|32=37|54=1|55=DJJ|155=USD|10=087|
8=FIX.4.2|9=105|35=8|34=705|49=BROKER|52=20210312-16:36:07.520|56=CLIENT|31=1.6261444091796875|32=34|54=I|55=IFV|155=USD|10=140|
8=FIX.4.2|9=104|35=8|34=706|49=BROKER|52=20210312-16:36:07.520|56=CLIENT|31=1.770166277885437|32=79|54=1|55=XSF|155=USD|10=088|
8=FIX.4.2|9=105|35=8|34=707|49=BROKER|52=20210312-16:36:07.520|56=CLIENT|31=1.7358291149139404|32=64|54=2|55=XYE|155=USD|10=130|
8=FIX.4.2|9=105|35=8|34=708|49=BROKER|52=20210312-16:36:07.520|56=CLIENT|31=1.4236277341842651|32=96|54=2|55=WSR|155=USD|10=137|
8=FIX.4.2|9=105|35=8|34=709|49=BROKER|52=20210312-16:36:07.520|56=CLIENT|31=1.0982611179351807|32=31|54=2|55=XCQ|155=USD|10=114|
8=FIX.4.2|9=85|35=8|34=710|49=BROKER|52=20210312-16:36:07.520|56=CLIENT|31=1.8819910287857056|32=86|10=041|
8=FIX.4.2|9=105|35=8|34=711|49=BROKER|52=20210312-16:36:07.520|56=CLIENT|31=1.2960028648376465|32=67|54=2|55=JWQ|155=USD|10=130|
8=FIX.4.2|9=105|35=8|34=712|49=BROKER|52=20210312-16:36:07.520|56=CLIENT|31=1.902559518814087|32=95|54=2|55=PPXP|155=USD|10=166|
8=FIX.4.2|9=105|35=8|34=713|49=BROKER|52=20210312-16:36:07.520|56=CLIENT|31=1.6114082336425781|32=52|54=2|55=CUA|155=USD|10=086|
8=FIX.4.2|9=105|35=8|34=714|49=BROKER|52=20210312-16:36:07.520|56=CLIENT|31=1.427897572517395|32=-87|54=2|55=JHY|155=USD|10=130|
8=FIX.4.2|9=105|35=8|34=715|49=BROKER|52=20210312-16:36:07.520|56=CLIENT|31=1.1199426651000977|32=51|54=2|55=ARZ|155=USD|10=113|
8=FIX.4.2|9=105|35=8|34=716|49=BROKER|52=20210312-16:36:07.520|56=CLIENT|31=1.9998102188110352|32=43|54=2|55==DS|155=USD|10=090|
8=FIX.4.2|9=104|35=8|34=717|49=BROKER|52=20210312-16:36:07.520|56=CLIENT|31=1.609694242477417|32=HK|54=2|55=XCQ|155=USD|10=115|
8=FIX.4.2|9=105|35=8|34=718|49=BROKER|52=20210312-16:36:07.520|56=CLIENT|31=1.4654076099395752|32=55|54=2|55=JHI|155=USD|10=116|
8=FIX.4.2|9=105|35=8|34=719|49=BROKER|52=20210312-16:36:07.520|56=CLIENT|31=1.4145156145095825|32=64|54=2|55=ZKA|155=USD|10=112|
8=FIX.4.2|9=85|35=8|34=720|49=BROKER|52=20210312-16:36:07.520|56=CLIENT|31=1.3349523544311523|32=42|10=007|
8=FIX.4.2|9=105|35=8|34=721|49=BROKER|52=20210312-16:36:07.520|56=CLIENT|31=1.5986347198486328|32=89|54=U|55=KDO|155=USD|10=165|
8=FIX.4.2|9=105|35=8|34=722|49=BROKER|52=20210312-16:36:07.520|56=CLIENT|31=1.4195650815963745|32=94|54=2|55=RUC|155=USD|10=126|
8=FIX.4.2|9=85|35=8|34=723|49=BROKER|52=20210312-16:36:07.520|56=CLIENT|31=1.0900704860687256|32=85|10=028|
8=FIX.4.2|9=105|35=8|34=724|49=BROKER|52=20210312-16:36:07.520|56=CLIENT|31=1.635932207107544|32=-10|54=2|55=MBD|155=USD|10=070|
8=FIX.4.2|9=105|35=8|34=725|49=BROKER|52=20210312-16:36:07.520|56=CLIENT|31=1.9761431217193604|32=75|54=2|55=MBD|155=USD|10=091|
8=FIX.4.2|9=104|35=8|34=726|49=BROKER|52=20210312-16:36:07.520|56=CLIENT|31=1.958985686302185|32=76|54=2|55=CTO|155=USD|10=082|
8=FIX.4.2|9=104|35=8|34=727|49=BROKER|52=20210312-16:36:07.520|56=CLIENT|31=1.505225419998169|32=28|54=2|55=ZLB|155=USD|10=074|
8=FIX.4.2|9=105|35=8|34=728|49=BROKER|52=20210312-16:36:07.520|56=CLIENT|31=1.0517237186431885|32=13|54=2|55=KMR|155=USD|10=114|
8=FIX.4.2|9=103|35=8|34=729|49=BROKER|52=20210312-16:36:07.520|56=CLIENT|31=1.728479266166687|32=0|54=1|55=ZSN|155=USD|10=045|
8=FIX.4.2|9=105|35=8|34=730|49=BROKER|52=20210312-16:36:07.520|56=CLIENT|31=1.2268004417419434|32=80|54=2|55=TXY|155=USD|10=128|
8=FIX.4.2|9=104|35=8|34=731|49=BROKER|52=20210312-16:36:07.520|56=CLIENT|31=1.238695740699768|32=25|54=L|55=RVD|155=USD|10=110|
8=FIX.4.2|9=84|35=8|34=732|49=BROKER|52=20210312-16:36:07.520|56=CLIENT|31=1.1326062679290771|32=1|10=223|
8=FIX.4.2|9=102|35=8|34=733|49=BROKER|52=20210312-16:36:07.520|56=CLIENT|31=1.079117774963379|32=49|54=2|55=GJH|254=1|10=131|
8=FIX.4.2|9=104|35=8|34=734|49=BROKER|52=20210312-16:36:07.520|56=CLIENT|31=1.812016487121582|32=79|54=2|55=AJN|155=USD|10=044|
8=FIX.4.2|9=104|35=8|34=735|49=BROKER|52=20210312-16:36:07.520|56=CLIENT|31=1.5289111137390137|32=4|54=1|55=EZQ|155=USD|10=060|
8=FIX.4.2|9=85|35=8|34=736|49=BROKER|52=20210312-16:36:07.520|56=CLIENT|31=1.5602772235870361|32=50|10=020|
8=FIX.4.2|9=105|35=8|34=737|49=BROKER|52=20210312-16:36:07.520|56=CLIENT|31=1.7418944835662842|32=78|54=2|55=OCZ|155=USD|10=139|
8=FIX.4.2|9=105|35=8|34=738|49=BROKER|52=20210312-16:36:07.520|56=CLIENT|31=1.6215033531188965|32=33|54=1|55=FGP|155=USD|10=100|
8=FIX.4.2|9=105|35=8|34=739|49=BROKER|52=20210312-16:36:07.520|56=CLIENT|31=1.1166186332702637|32=56|54=2|55=AHZ|155=USD|10=109|
8=FIX.4.2|9=105|35=8|34=740|49=BROKER|52=20210312-16:36:07.520|56=CLIENT|31=1.3654812574386597|32=20|54=1|55=VKU|155=USD|10=131|
8=FIX.4.2|9=104|35=8|34=741|49=BROKER|52=20210312-16:36:07.520|56=CLIENT|31=1.284942865371704|32=91|54=1|55=TXY|155=USD|10=093|
8=FIX.4.2|9=106|35=8|34=742|49=BROKER|52=20210312-16:36:07.520|56=CLIENT|31=1.4391788244247437|32=-99|54=2|55=LCZ|155=USD|10=177|
8=FIX.4.2|9=103|35=8|34=743|49=BROKER|52=20210312-16:36:07.520|56=CLIENT|31=1.611802339553833|32=2|54=2|55=JKS|155=USD|10=000|
8=FIX.4.2|9=104|35=8|34=744|49=BROKER|52=20210312-16:36:07.520|56=CLIENT|31=1.924049973487854|32=29|54=1|55=USX|155=USD|10=105|
8=FIX.4.2|9=104|35=8|34=745|49=BROKER|52=20210312-16:36:07.520|56=CLIENT|31=1.8058587312698364|32=5|54=1|55=ZHJ|155=USD|10=080|
8=FIX.4.2|9=105|35=8|34=746|49=BROKER|52=20210312-16:36:07.520|56=CLIENT|31=1.9509708881378174|32=16|54=2|55=QRT|155=USD|10=146|
8=FIX.4.2|9=104|35=8|34=747|49=BROKER|52=20210312-16:36:07.520|56=CLIENT|31=1.529024362564087|32=10|54=2|55=PJZ|155=USD|10=067|
8=FIX.4.2|9=88|35=8|34=748|49=BROKER|52=20210312-16:36:07.520|56=CLIENT|31=0|32=14|54=2|55=ODE|155=USD|10=201|
8=FIX.4.2|9=105|35=8|34=749|49=BROKER|52=20210312-16:36:07.520|56=CLIENT|31=1.3244493007659912|32=16|54=1|55=OXI|155=USD|10=124|
8=FIX.4.2|9=103|35=8|34=750|49=BROKER|52=20210312-16:36:07.520|56=CLIENT|31=1.24312162399292|32=98|54=2|55=EBY|155=USD|10=000|
8=FIX.4.2|9=104|35=8|34=751|49=BROKER|52=20210312-16:36:07.520|56=CLIENT|31=1.999833583831787|32=63|54=2|55=SQF|155=USD|10=088|
8=FIX.4.2|9=105|35=8|34=752|49=BROKER|52=20210312-16:36:07.520|56=CLIENT|31=1.4053908586502075|32=47|54=2|55=SQF|155=USD|10=116|
8=FIX.4.2|9=103|35=8|34=753|49=BROKER|52=20210312-16:36:07.520|56=CLIENT|31=1.6475412845611572|32=68|54=2|55=RYX|254=1|10=213|
8=FIX.4.2|9=104|35=8|34=754|49=BROKER|52=20210312-16:36:07.520|56=CLIENT|31=1.699676513671875|32=65|54=2|55=FFB|155=USD|10=060|
8=FIX.4.2|9=104|35=8|34=755|49=BROKER|52=20210312-16:36:07.520|56=CLIENT|31=1.199691653251648|32=34|54=Q|55=JHI|155=USD|10=090|
8=FIX.4.2|9=104|35=8|34=756|49=BROKER|52=20210312-16:36:07.520|56=CLIENT|31=1.1264734268188477|32=4|54=2|55==QJ|155=USD|10=057|
8=FIX.4.2|9=105|35=8|34=757|49=BROKER|52=20210312-16:36:07.520|56=CLIENT|31=1.1562155485153198|32=62|54=1|55=UEH|155=USD|10=111|
8=FIX.4.2|9=105|35=8|34=758|49=BROKER|52=20210312-16:36:07.520|56=CLIENT|31=1.5088350772857666|32=24|54=2|55=ZBS|155=USD|10=138|
8=FIX.4.2|9=105|35=8|34=759|49=BROKER|52=20210312-16:36:07.520|56=CLIENT|31=1.3639642000198364|32=84|54=2|55=XSF|155=USD|10=128|
8=FIX.4.2|9=104|35=8|34=760|49=BROKER|52=20210312-16:36:07.520|56=CLIENT|31=1.111526370048523|32=81|54=2|55=WEK|155=USD|10=042|
8=FIX.4.2|9=105|35=8|34=761|49=BROKER|52=20210312-16:36:07.520|56=CLIENT|31=1.9101247787475586|32=53|54=2|55=QCN|155=USD|10=119|
8=FIX.4.2|9=105|35=8|34=762|49=BROKER|52=20210312-16:36:07.520|56=CLIENT|31=1.4066400527954102|32=92|54=2|55=ZWT|155=USD|10=132|
8=FIX.4.2|9=104|35=8|34=763|49=BROKER|52=20210312-16:36:07.520|56=CLIENT|31=1.7149593830108643|32=1|54=2|55=XZM|155=USD|10=084|
8=FIX.4.2|9=103|35=8|34=764|49=BROKER|52=20210312-16:36:07.520|56=CLIENT|31=1.110113263130188|32=0|54=1|55=WYN|155=USD|10=001|
8=FIX.4.2|9=105|35=8|34=765|49=BROKER|52=20210312-16:36:07.520|56=CLIENT|31=1.2301914691925049|32=65|54=2|55=HUH|155=USD|10=113|
8=FIX.4.2|9=85|35=8|34=766|49=BROKER|52=20210312-16:36:07.520|56=CLIENT|31=1.080366611480713|32=-56|10=016|
8=FIX.4.2|9=105|35=8|34=767|49=BROKER|52=20210312-16:36:07.520|56=CLIENT|31=1.6821534633636475|32=47|54=2|55=AZW|155=USD|10=135|
8=FIX.4.2|9=104|35=8|34=768|49=BROKER|52=20210312-16:36:07.520|56=CLIENT|31=1.079779863357544|32=53|54=I|55=SJF|155=USD|10=104|
8=FIX.4.2|9=105|35=8|34=769|49=BROKER|52=20210312-16:36:07.520|56=CLIENT|31=1.6261389255523682|32=83|54=2|55=SKA|155=USD|10=119|
8=FIX.4.2|9=103|35=8|34=770|49=BROKER|52=20210312-16:36:07.520|56=CLIENT|31=1.55995774269104|32=40|54=2|55=NJJ|155=USD|10=009|
8=FIX.4.2|9=104|35=8|34=771|49=BROKER|52=20210312-16:36:07.520|56=CLIENT|31=1.4728877544403076|32=1|54=2|55=QWZ|155=USD|10=091|
8=FIX.4.2|9=102|35=8|34=772|49=BROKER|52=20210312-16:36:07.520|56=CLIENT|31=1.156114935874939|32=80|54=1|55=VIT|254=1|10=149|
8=FIX.4.2|9=105|35=8|34=773|49=BROKER|52=20210312-16:36:07.520|56=CLIENT|31=1.4201269149780273|32=58|54=1|55=RUC|155=USD|10=118|
8=FIX.4.2|9=105|35=8|34=774|49=BROKER|52=20210312-16:36:07.520|56=CLIENT|31=1.5354149341583252|32=41|54=2|55=PYN|155=USD|10=124|
8=FIX.4.2|9=106|35=8|34=775|49=BROKER|52=20210312-16:36:07.520|56=CLIENT|31=1.4952582120895386|32=19|54=B|55=GFFB|155=USD|10=190|
8=FIX.4.2|9=106|35=8|34=776|49=BROKER|52=20210312-16:36:07.520|56=CLIENT|31=1.5710334777832031|32=51|54=2|55=VCBX|155=USD|10=185|
8=FIX.4.2|9=105|35=8|34=777|49=BROKER|52=20210312-16:36:07.520|56=CLIENT|31=1.1030209064483643|32=12|54=2|55=ZOV|155=USD|10=122|
8=FIX.4.2|9=105|35=8|34=778|49=BROKER|52=20210312-16:36:07.520|56=CLIENT|31=1.8540446758270264|32=97|54=1|55=DHI|155=USD|10=112|
8=FIX.4.2|9=105|35=8|34=779|49=BROKER|52=20210312-16:36:07.521|56=CLIENT|31=1.9017670154571533|32=49|54=2|55=IGL|155=USD|10=111|
8=FIX.4.2|9=104|35=8|34=780|49=BROKER|52=20210312-16:36:07.521|56=CLIENT|31=1.5227971076965332|32=8|54=2|55=CTO|155=USD|10=069|
8=FIX.4.2|9=103|35=8|34=781|49=BROKER|52=20210312-16:36:07.521|56=CLIENT|31=1.7417916059494019|32=42|54=1|55=REU|254=1|10=191|
8=FIX.4.2|9=105|35=8|34=782|49=BROKER|52=20210312-16:36:07.521|56=CLIENT|31=1.3270361423492432|32=67|54=2|55=GFP|155=USD|10=097|
8=FIX.4.2|9=106|35=8|34=783|49=BROKER|52=20210312-16:36:07.521|56=CLIENT|31=1.1235308647155762|32=-90|54=1|55=IFI|155=USD|10=144|
8=FIX.4.2|9=105|35=8|34=784|49=BROKER|52=20210312-16:36:07.521|56=CLIENT|31=1.1459722518920898|32=31|54=2|55=NSZ|155=USD|10=145|
8=FIX.4.2|9=104|35=8|34=785|49=BROKER|52=20210312-16:36:07.521|56=CLIENT|31=1.747176170349121|32=30|54=2|55=ANA|155=USD|10=033|
8=FIX.4.2|9=102|35=8|34=786|49=BROKER|52=20210312-16:36:07.521|56=CLIENT|31=1.901281476020813|32=28|54=2|55=OCZ|254=1|10=128|
8=FIX.4.2|9=103|35=8|34=787|49=BROKER|52=20210312-16:36:07.521|56=CLIENT|31=1.676715612411499|32=6|54=X|55=LUE|155=USD|10=058|
8=FIX.4.2|9=105|35=8|34=788|49=BROKER|52=20210312-16:36:07.521|56=CLIENT|31=1.4522161483764648|32=74|54=2|55=FFB|155=USD|10=102|
8=FIX.4.2|9=105|35=8|34=789|49=BROKER|52=20210312-16:36:07.521|56=CLIENT|31=1.5378057956695557|32=84|54=2|55=DPO|155=USD|10=146|
8=FIX.4.2|9=104|35=8|34=790|49=BROKER|52=20210312-16:36:07.521|56=CLIENT|31=1.412521243095398|32=34|54=2|55=IYE|155=USD|10=054|
8=FIX.4.2|9=104|35=8|34=791|49=BROKER|52=20210312-16:36:07.521|56=CLIENT|31=1.6113882064819336|32=6|54=2|55=UOT|155=USD|10=082|
8=FIX.4.2|9=105|35=8|34=792|49=BROKER|52=20210312-16:36:07.521|56=CLIENT|31=1.1614875793457031|32=69|54=H|55=EFF|155=USD|10=126|
8=FIX.4.2|9=106|35=8|34=793|49=BROKER|52=20210312-16:36:07.521|56=CLIENT|31=1.9036822319030762|32=74|54=2|55=IRUC|155=USD|10=190|
8=FIX.4.2|9=105|35=8|34=794|49=BROKER|52=20210312-16:36:07.521|56=CLIENT|31=1.0144503116607666|32=71|54=1|55=ZOT|155=USD|10=127|
